:020000022000DC
:102000000000042055220200AD220200AF2202008F
:10201000B1220200B3220200B5220200000000003B
:10202000000000000000000000000000B7220200D5
:10203000B922020000000000BB220200BD22020003
:10204000A9510200C3220200C55A02007D6D0200A0
:10205000C9220200CB220200C1540200CF2202009A
:10206000D1220200D3220200D5220200D722020090
:10207000D9220200DB220200DD220200DF22020060
:10208000E1220200B12F0200E5220200E722020055
:102090004D300200EB220200A1AA0200EF22020052
:1020A000F1220200F3220200F5220200F7220200D0
:1020B000F9220200FB220200BF220200BF2202001E
:1020C000FD220200FF22020001230200032302007E
:1020D0000523020007230200092302000B2302004C
:1020E0000D2302000F23020011230200132302001C
:0820F000BF22020015230200CB
:1020F800354936480A1A02D0072291438D46344999
:1021080034480A1A06D00722914381F3098802222B
:1021180082F3148830483149314A00F044F8314894
:102128003149324A00F03FF831483249324A00F02A
:102138003AF832483249334A00F035F832483349E0
:10214800334A00F030F833483349344A00F02BF86A
:1021580033483449344A00F026F8344834490022D8
:1021680000F02CF833483449002200F027F83348AF
:102178003349091A082902DB002202604160314A0A
:1021880090471F481F49884205D00268043003B4AD
:10219800904703BCF7E700208646EC460020002164
:1021A800294A9047FEE7884207D0521A05D003789B
:1021B80001300B700131013AF9D17047884202D0E1
:1021C80002700130FAE770470000042000F803208D
:1021D8000000042000000420C0C20200B02A002031
:1021E800FC2A00201823020018230200C8B00200AD
:1021F800C0C20200B02A0020B02A002030B202007B
:1022080030B2020030B2020030B2020030B2020036
:1022180030B2020030B2020030B20200C0C2020086
:102228000CC30200FC2A0020FC2A0020FC2A002003
:102238002F3C0020303C0020303C0020303C002067
:10224800303E002079220200D56402000F484FF08A
:102258000701884385460E4880470E48016841F4C7
:1022680070010160BFF34F8FBFF36F8FFFF740BF5F
:1022780009480A490A4A884207D0521A05D0037801
:1022880001300B700131013AF9D170470000042088
:10229800BDA6020088ED00E098B10200182A0020CF
:1022A800B02A0020FEE7FEE7FEE7FEE7FEE7FEE7CE
:1022B800FEE7FEE7FEE7FEE7FEE7FEE7FEE7FEE7EE
:1022C800FEE7FEE7FEE7FEE7FEE7FEE7FEE7FEE7DE
:1022D800FEE7FEE7FEE7FEE7FEE7FEE7FEE7FEE7CE
:1022E800FEE7FEE7FEE7FEE7FEE7FEE7FEE7FEE7BE
:1022F800FEE7FEE7FEE7FEE7FEE7FEE7FEE7FEE7AE
:10230800FEE7FEE7FEE7FEE7FEE7FEE7FEE700BFC3
:102318007047000007B5044B0093044A402300F0BF
:102328001DF803B05DF804FB39230200FC2A0020E5
:10233800F8B50F4614466AB10A26002522467919CF
:10234800002004F0BDFD0544241A08B9013E01D05F
:10235800002CF3D1F8BD704704F0E6BDF0B595B098
:102368001C46164608460D4602F0E3FC1A9B0D93E0
:10237800CDE9086400242346082205A928460A94C2
:102388008DF82C400C9402F01EFD079B0293069BCF
:10239800ADF80C309DF814308DF8104003F00302AE
:1023A800012A21D1BDF81440059EC3F3C202C4F32B
:1023B8008314C3F380038DF80E208DF80F30A2002C
:1023C80008230EA9284602F0FEFCC6F3952608ABA2
:1023D8000093224602AB0EA9304600F097FB284630
:1023E80002F0B4FC15B0F0BD022AF8D1BDF81640D1
:1023F800C3F3C202C3F38003A4098DF80E208DF83D
:102408000F300827082C264628BF08263B463246A8
:102418000EA9284602F0D7FCA41B08AB02AA314635
:102428000EA8374400F0D8FB002CEBD1D7E700000A
:10243800014B01221A7070477D2B00207047000065
:1024480070B50E4D06460FCD88B06C460FC495E8A2
:102458000F00002E84E80F004FF00603084A0948D1
:10246800009308BF0022694603F086F908B100F01E
:10247800E7FC054B1E7008B070BD00BF3CB20200FF
:1024880039240200B02A00203C2B002008B504485B
:1024980003F02CFA0020BDE80840FFF7D1BF00BFC9
:1024A800B02A002007B5044B0093044A4023FFF7E5
:1024B80055FF03B05DF804FBC92402003D2B002042
:1024C80010B5084C08480023D2B2237003F07AFAFA
:1024D80008B100F0B5FC054B1A7812B12378002B2F
:1024E800FBD010BD7D2B0020B02A00203C2B002003
:1024F8000120FFF7A5BF000038B5094CFFF72CFFF6
:1025080001250421204600F085FA6572054CFFF785
:10251800EFFF0421204600F07DFA657238BD00BF48
:10252800B82A0020C42A00202DE9F04F85B00546BE
:1025380000260DF1030088468DF8036000F080FF47
:102548003F4B1C68C8F80040D3E901210A44013216
:10255800A71C121B05F1040803F5836E012003F282
:10256800144C424511D30C4003349DF8030013F872
:10257800242042F0030203F824203D441D6000F0AB
:1025880083FF012005B0BDE8F08F5EE8002F42EA26
:1025980000094EE8009A9AF0000FF6D15CE8002F87
:1025A80042EA00094CE8009A9AF0000FF6D15A68FE
:1025B80001EA020909F1030903EB890999F800A066
:1025C8001AF0030F2AD001EA020903EB8909023243
:1025D800D9F80C90CDF8049009F00309B9F1010F6E
:1025E80028D0B9F1020F07D1BDF806904FEA991922
:1025F80009F1030902EB99025CE8009F09EA060A5F
:102608004CE800AB9BF0000FF6D1B9F1000F00D0F9
:102618005A605A680A440132121BA2E7B9F802A0AC
:10262800B9F800904FEA991909EB9A1909F10109CB
:102638004A44BDE7BDF80490C9F383194A44DBE76F
:10264800802B002038B50F4B0F48FF229A600022DC
:10265800C3F81824C3E90022C3F8142483F81C24FF
:1026680002F020FB40B9094A094B0A4C9B1ADB08C7
:1026780002460C219A4200D138BD01FB02F52A53CB
:102688000132F7E7802B002068B2020018B102007F
:1026980070B10200182A002030B50B4C79B10B4AF2
:1026A8000B49121BD20800239A4201D1002030BDE9
:1026B8004D88854201F10C0102D00133F4E703464D
:1026C80054F83300F3E700BF18B1020070B10200FC
:1026D800182A0020094B013903EBC000032909D847
:1026E800DFE801F00A020406042070470079704709
:1026F80040797047002070470220704718B10200E7
:10270800034BD3E90030C31A58425841704700BF01
:10271800802B00202DE9F04F85B0FFF7F1FF00284E
:1027280040F0DC806E4DC5F81804BFF34F8FD5E933
:10273800013404EA0302033205EB820211788907A7
:102748005AD004EA030203F1020A013305EB8202BC
:10275800234005EB8303D268DB68029302F003038E
:10276800022B01925BD1BDF806305E489F09502FBD
:10277800B94628BF4FF0500969F38F1309F10801D2
:10278800ADF8063002F0A6FA8046002800F08480F2
:1027980024EA0A06013602F0CCFAB6000023082221
:1027A80001A9404602F0E6FAB14530D95FFA89F945
:1027B80056B3F6B2A9EB060904EA0A0103315FFA37
:1027C80089FBB146484E05EB810108234A4640463D
:1027D80002F0D0FA36B109F108035A4631464046AC
:1027E80002F0C8FA03370AEB9707D5F81834002B1C
:1027F8004FD1D5F810445DE051881288920902EB58
:1028080091120132134494E73749B346DDE704EAED
:102818000A01033108234A4605EB8101DFE7012B52
:102828002FD1BDF804302F48C3F38311062928BFE0
:10283800062161F3891302318900ADF8043002F0F2
:1028480049FA804640B302F074FA0023082201A92D
:10285800404602F08FFA0026BDF80420C2F3831226
:10286800B300964203F1080306EB0A07BDD22740DE
:10287800F91C042205EB8101404602F07BFA01367F
:10288800EAE7032B08D1D5F818342BB905B0BDE811
:10289800F08F404602F05AFAFFF732FF80F001004D
:1028A800C0B2F3E7637A23B1236841461B68204628
:1028B80098476468002CF5D1404602F047FA0DF1BC
:1028C80003008DF8034000F0BBFDD5F8183403B9B8
:1028D8006F609DF8030000F0D7FDDDE70020D5E725
:1028E800802B002068B202008C2B00202DE9F347D2
:1028F800254C06460D46184601A991469A46D4F835
:102908000880FFF711FE214650B301980024831C6C
:10291800544504EB03072DD1421C02EA080201EBDF
:102928008202330CD36000EA08030333300911F83C
:10293800232060F3820266F3C50201F8232031F8F0
:10294800232064F3891221F8232051F82320012041
:1029580065F39F2241F8232060F3010201F8232048
:1029680091F81C341BB1FFF7D5FE0028FBD102B04B
:10297800BDE8F08707EA080701EB870759F8242024
:10298800FA600134C4E700BF802B002000231A46F8
:10299800FFF7ACBF07B50123019201AAFFF7A6FF15
:1029A80003B05DF804FB07B5CDE9002302236A46AE
:1029B800FFF79CFF03B05DF804FB1FB5CDE90123C9
:1029C800069B039301AA0323FFF790FF05B05DF868
:1029D80004FB1FB5CDE90023069B0293079B0393D5
:1029E8006A460423FFF782FF05B05DF804FB7FB554
:1029F800CDE90023089B0293099B03930A9B049348
:102A08000B9B05936A460623FFF770FF07B05DF836
:102A180004FB00000F4930B5D1F8104400232246CA
:102A280042B90372D1F810444CB9C1F8100442609D
:102A3800184630BD157A9D4205D05268F0E76268A5
:102A480042606060F4E701330A2BE8D14FF0FF33AE
:102A5800EEE700BF802B0020084A38B50123D2F8E2
:102A6800104482F81C341D4604B938BD23686572C9
:102A780020465B6898476468F6E700BF802B002013
:102A8800C37910B50C467BB9037A23B1084A0949C2
:102A9800204601F046FD0849204601F042FD204647
:102AA800BDE8104001F032BD002AF8D0F3E700BFBE
:102AB800B3B20200DEB70200B8B2020070B5037A02
:102AC80004460D4653B181798088FFF703FE0B4B0E
:102AD8000B4953F82020284601F023FDA279094B21
:102AE800A08853F822600021FFF7D6FD324603463E
:102AF80005492846BDE8704001F013BD80B20200C8
:102B0800DEB70200C8B20200BBB202002DE9F043F2
:102B180085B01F460C9D002395F80C902B73FB790C
:102B280006460C4690461BB929463846FFF7C6FFAD
:102B3800B8F1060F09D8DFE808F00412181F283387
:102B480040003146284601F0ECFC00222946384670
:102B5800FFF796FF85F80C9005B0BDE8F083226872
:102B68003146284601F0DDFCEFE7D4E90023314681
:102B7800284601F0D6FCE8E7A36800933146D4E97B
:102B88000023284601F0CDFCDFE7E3680193A36842
:102B980000933146D4E90023284601F0C2FCD4E76B
:102BA80023690293E3680193A36800933146D4E94B
:102BB8000023284601F0B5FCC7E76369039323693E
:102BC8000293E3680193A36800933146D4E9002394
:102BD800284601F0A6FCB8E708292DE9F84F8046F9
:102BE8000F4616461C4639D893F80C9000232373D9
:102BF800D3791BB921461046FFF760FFDFF87CA0A8
:102C0800DFF87CB00025AF422AD918F805205946CC
:102C1800204601F086FC0135082DF4D11549DFF86E
:102C280064B0204601F07DFC0025AF421DD918F89C
:102C380005A0504608F056F9002814BF52462E2227
:102C48005946204601F06DFC0135082DEDD10122D1
:102C580021463046FFF714FF84F80C90BDE8F88F42
:102C68005146204601F05DFCD5E70349204601F0B6
:102C780058FCE9E7AEB20200ACB20200AAB2020008
:102C8800A4B20200B0B202002DE9F84F1D4FDFF8E0
:102C980080801D4E4FF000093B785FFA89F5AB4202
:102CA80001D8BDE8F88FD8F800B033681BF83500B4
:102CB800012404FA00F213420BEBC50A1ED023EAE2
:102CC8000203336002F0EAFB104A1BF83530126841
:102CD8009C40144000FA03F294420FD1DAF8044001
:102CE80064B19AF80120551E6A426A41A2EB000CB1
:102CF800DCF1000141EB0C011846A04709F101097C
:102D0800CAE700BF703000209C30002098300020B7
:102D1800A030002070B50646124800F081FBF8B9D3
:102D2800114A01241368B4402342154615D1304690
:102D380002F0B4FB0D4A136860B1234313602B689B
:102D480008481C430A4B2C6000221968BDE87040F3
:102D580000F020BB23EA0403F0E723EA040414602C
:102D680070BD00BF783000209C30002098300020D3
:102D780074300020042A2DE9F34106460C46154616
:102D880036D902F0CFFAB8B11A4B1B4A1E601B4B5A
:102D98001B4F1C701B4B1D60002515601A4A013C17
:102DA8001560E4B24FF00308FF2C0CD1174A1848FD
:102DB800002100F0DDFA03E002F086FA0028E3D0F3
:102DC80002B0BDE8F08123B206EBC30201A99278F4
:102DD8008DF8052016F833008DF804803A46ADF8D2
:102DE800065002F0A9FA013CE4B20028DCD0E7E77B
:102DF8000720E5E7A0300020983000207030002040
:102E08001D2D0200743000209C300020912C0200FF
:102E180038B3020070B5084D084E00242B789C4248
:102E280001D3002070BD3368012113F8340002F08B
:102E3800EDFA0134F2E700BF70300020A030002026
:102E48001FB50021CDE9021001AA44F20100ADF836
:102E5800041003F0F7FA05B05DF804FB094A53784B
:102E680091780133DBB2994208BF00231178994267
:102E78001FBF03705078182303FB002014BF0430D1
:102E880000207047A430002073B5054600240DF1DA
:102E980007000E468DF8074000F0D2FA0DF1060043
:102EA800FFF7DCFF90B10670094B9DF806204560DE
:102EB8005A709DF8070000F0E7FA24B9054B4FF463
:102EC8008012C3F80021204602B070BD0424F0E748
:102ED800A430002000E100E0204B21491A682F238C
:102EE80000BF00BF00BF00BF00BF00BF00BF00BFE2
:102EF8008A422FD000BF00BF00BF00BF00BF00BF85
:102F080000BF00BF00BF00BF00BF00BF00BF00BFC1
:102F180000BF00BF00BF00BF00BF00BF00BF00BFB1
:102F280000BF00BF00BF00BF00BF00BF00BF00BFA1
:102F380000BF00BF00BF00BF00BF00BF00BF00BF91
:102F480000BF00BF00BF00BF00BF00BF00BF00BF81
:102F580000BF00BF013BC3D1704700BFE42A002077
:102F68000024F4000C4B0D484FF4003210B5C3F8A0
:102F7800802001244FF48033C0F84833C0F8083368
:102F88004460FFF7A9FF064B846000201860FFF734
:102F9800A3FF044B187010BD00E100E000100140D1
:102FA800C0310020B1310020F8B51F4B1F491B6804
:102FB8000025C1F84051C1F84451C1F84851C1F841
:102FC8004C51C1F80051C1F804514BB3D1F8044534
:102FD80017490968641A24F07F442F461A68A242E8
:102FE80009D8A41A15441A7CDE691AB11F74D3E9EA
:102FF80005209047AEB90F4A0F4B11781B788B42CA
:1030080005D10133DBB2022B08BF002313701278FD
:103018000A4B43F822500A4B4FF48012C3F80021A0
:10302800F8BD3346DAE700BFC43100200010014084
:10303800C0310020BD310020BC310020B431002057
:1030480000E100E02DE9F04FA64AA7491378097876
:10305800A64C994285B03CD00133DBB2022B08BFA5
:1030680000231370A2491278A24B0F6853F822006C
:103078003B1823F07F4300220B6023681546164651
:10308800944613B942B1236006E0196881420ED90B
:1030980002B12360091A1960012623680293DFF838
:1030A8005C9200230193BDB9DFF85CA268E0401A86
:1030B8000E44D968C3F800C0D3F81CE031B1BA197E
:1030C80022F07F42C3E90121DD611D4601227346DA
:1030D800D7E700252E46E0E72846ED69844A43688D
:1030E8001268DFF828E2D0F808C0991A21F07F4169
:1030F800714500F2A58061440160012202742268D2
:103108000023C0E90133C361002A40F0A380206096
:10311800C9E75A1C9AF80210D2B291428AF80020E4
:1031280004BF00228AF80020182202FB03A31A79A0
:103138009868022A1CD0032A12D0012A20D1027CC6
:10314800F2B9D3E9031787605F699B6983616A4BAA
:10315800C7601B78002B0CBF0B4613464360BDE7C6
:10316800002223681146002B66D14AB1236007E08C
:10317800226893469046BBF1000F57D10023037491
:103188009AF800309AF801209A42C2D1019A23682D
:1031980022B9029A9A4201D1002E41D0002B7BD04D
:1031A800D3F80090554C524BD4F804651868544F26
:1031B800351A3B7825F07F4503359BB94FF48033AA
:1031C800C4F84433C4F804334E4B4FF400324FF084
:1031D8000108C3F880211A60C4F80080FFF77CFE5C
:1031E80087F80080A9452CBF4844401920F07F404B
:1031F800C4F84005D4F804359B1B23F07F43801B9B
:10320800033320F07F4083420AD9D4F80435C4F848
:103218004035FFF761FE3B4B4FF40032C3F8002105
:10322800354B00221A7005B0BDE8F08F584536D0EE
:10323800D846DBF81CB09EE719740122DB6992E7D7
:10324800D31A23F07F43634534BFACEB0303002359
:10325800036052E70168136899421BD8591A116034
:10326800C26154E7A1EB0C01D3F81CC01A46BCF1AB
:10327800000F0AD06346D3F800C08C45F2D3ACEBFC
:10328800010CC3F800C09C4613460160C0F81CC07E
:10329800D86108E71346EEE7FFF764FEC0E740454C
:1032A8000FD1D169216061B9DFF844E003920123AD
:1032B800C9F80830CEF800100F490B70FFF70CFE64
:1032C800039ADBF81C10DBF80030C8F81C1011B1A9
:1032D8000F683B440B60019923689A4218BF01218B
:1032E80001914BE7BC310020BD310020C4310020E2
:1032F800C0310020B4310020B0310020001001405E
:10330800B131002000E100E0A4300020FEFF7F0082
:1033180008B5FFF727FE104B00200B2218809A7083
:103328000E4B18600E4B18700E4B18700E4B4FF466
:103338008012E021C3F8802183F814131A6002F187
:103348008042A2F56F22C2F8080583F81113074BD3
:10335800D2F804251A6008BDA4300020C43100202A
:10336800BC310020BD31002000E100E0C031002068
:10337800074B9B784BB132B128B10368187C20B950
:1033880059745A617047072070470820704700BF7A
:10339800A43000202DE9F7431E4FBB7805460E46A2
:1033A8009046A3B398B304292FD943697BB3437CD0
:1033B8000024012B0DF107000CBF8946A1468DF8AA
:1033C800074000F03DF80DF10600FFF747FDD0B1CA
:1033D80001230370104B4560D3F80435C0E9049805
:1033E800C0E902369DF806307B709DF8070000F0B2
:1033F8004BF824B9094B4FF48012C3F8002120463A
:1034080003B0BDE8F0830424EFE70724F7E70824B6
:10341800F5E700BFA43000200010014000E100E003
:10342800064A92783AB130B1426922B10022027458
:103438000221FFF729BD0820704700BFA4300020F3
:1034480070B5EFF3108672B60C4A946801239CB9E4
:1034580093600B4B0B4DD3F8801029401160C3F8D3
:103468008050D3F8841051604FF0FF32C3F88420A5
:10347800047006B962B670BD0370FAE7C83100205F
:1034880000E100E0FC06FFBD084B9A6810B55AB190
:1034980050B9EFF3108172B6054A1C6814605C6875
:1034A8005460986001B962B610BD00BFC8310020F1
:1034B80000E100E070B5064D0646002455F8043BCF
:1034C8000BB1304698470134042CF7D170BD00BFCA
:1034D800E0310020033080B240F2FD33984230B52D
:1034E8001FD8124B1A783AB91C895D892C440444B8
:1034F800A4B2B4F5806F0AD31A7DA2B99A8BDC8B7B
:103508002244024492B2B2F5806F0CD201220A80A2
:103518001446142202FB04335A89104458810020AF
:1035280030BD0920FCE70720FAE700BF143200206D
:103538000B4A0C4B5188142000FB0131CB6833B97E
:103548000420496810700122074801F0D1B9052309
:103558000649137002238B80012200230968F3E7D0
:10356800F8310020143200209C2A0020DC32002090
:1035780007B5002305490093054A0968054808234B
:1035880001F088F903B05DF804FB00BFDC320020CD
:1035980048B302009C2A002007B500230093014687
:1035A8000823034A034801F075F903B05DF804FBEA
:1035B80040B302009C2A002013B500230C46009358
:1035C80001460423074A084801F064F938B9074B53
:1035D800142202FB04340123237402B010BD0E2010
:1035E800FBE700BF3CB302009C2A002014320020F5
:1035F80037B50A480A4B42689C88196853880325DE
:10360800033305709BB2002000909B0001EB8401FE
:10361800044801F03FF903B030BD00BFF831002085
:10362800DC3200209C2A002010B50146044800F036
:10363800A3FE1C220446002107F0BDFC204610BD55
:10364800C832002068B10268084B9A4209D1406824
:10365800074B984207D0013398420CBF0120032042
:103668007047032070470020704700BFDEC0ADDE02
:10367800FE011EF14388033300EB8303994209D30B
:1036880082884FF6FF739A4206D00088B0FA80F01D
:103698004009704702207047012070472DE9F84320
:1036A8000223DFF860800B800D46174600F5805630
:1036B80000F108044FF00109B4420FD22368013326
:1036C8000CD031462046FFF7D5FF48B10FB187F837
:1036D800009002280BD14FF480632B80BDE8F8835B
:1036E800A368D8F80020934201D9C8F800302B8885
:1036F8006288033313442B806388033304EB830409
:10370800DAE700BF0C320020154A142303FB00201F
:1037180070B50B6844680D4604F58056ABB15C88FB
:10372800033403EB8404B4420DD2236801330AD076
:1037380031462046FFF79EFF01280BD010F0FF0FFF
:1037480005D00228EFD1002003E00834EBE72C6015
:10375800012070BD6388033304EB8304E3E700BFF3
:1037680014320020436873B504460D4663B3234AF8
:10377800D1688B4228D31269934225D813F00300ED
:1037880022D11F4A2189128991421DD121689A6844
:10379800914219D11B4A51688B4203D901F58051D6
:1037A8008B420DD3926993420CD902F58052934211
:1037B80008D201232B80B0FA80F0400902B070BD16
:1037C8000346F7E70A20F6E700232B801E460196FA
:1037D80001A92888FFF798FF30B92B8801339BB2DD
:1037E800012B2B80F3D9E9E7019B22689968914264
:1037F800EED16360024B1B892381DFE79C2A0020FE
:10380800F8310020143200202DE9F8431C461C4BE7
:103818001B7806460F4615466BB372B36CB3DFF8D8
:1038280068804FF01409A388012B01D90A2020E0F1
:1038380009FB03F318F803302BB92146A088FFF7DA
:1038480063FF20B92060A3880133A380EBE72368D6
:103858001EB1998832889142EFD11FB119883A88F0
:103868009142EAD19A68C5E90023064B1B892B814E
:103878000020BDE8F8830220FBE70520F9E700BF38
:10388800F0310020F83100201432002008B5074B31
:10389800191D5888FFF738FF18B1BDE80840FFF731
:1038A800A7BEBDE80840FFF743BE00BFF8310020BF
:1038B8002DE9F047A24FDFF8AC8288B004463E46B7
:1038C8003B6823B941469F4800F090FD3860356851
:1038D8002B785A1E052A00F2EA80DFE812F006006B
:1038E80061006100DE00DE004D0124B1964B00222C
:1038F8005A600124DCE02B79032B1DD8DFE803F0A4
:1039080015022A3591490B78022B084619D00B7DF0
:10391800022B4FF0010316D114225343C218002082
:10392800C8545068FFF738FE03E001232B71FFF7F6
:103938001FFE002800F0AC80834B00225A600E2442
:10394800B6E00023E8E7804A13700023536041F68D
:103958001D54ADE07E497F48002302222B718A80E6
:103968000122096800F0C4FFE3E7794C4FF0000931
:1039780085F804902068754DFFF70EFE764BD4F855
:1039880000C05A8814235343EA1805F80390516875
:103998002160A188C2F804C011810222A280C8E770
:1039A8006A4AB5F81490142000FB09209246018950
:1039B80054B1EB884289DC1CC3F57F43FD330C44CA
:1039C80013440481438194E74468AA7D04EB81048D
:1039D800062A60D8DFE802F01F452D3B1551040088
:1039E80041F61D54142202FB09A2EB881089D91C48
:1039F80001441181C3F57F435189FD330B44538141
:103A080056E05648564900234360AB690360FFF708
:103A1800A9FE002871D00223AB750023009304236C
:103A2800EA1821464B4800F035FF002830D00E2414
:103A3800D8E72B69002B14BF03230123AB750023A0
:103A4800009305F10C02042304F10801EAE70123BD
:103A5800AB750022EB8800929B002A6904F10C01E7
:103A6800E0E7032B0CBF05230623AB750023009367
:103A7800042305F10802E118D4E70623AB75384B97
:103A88001988364B5868FFF797FD04460028A9D1D6
:103A980008B0BDE8F0870F24A4E7002C7FF429AF15
:103AA8002B79012B36D0E3B1022B3FF450AF0F2412
:103AB8001422002103A807F07EFA41F61D539C4208
:103AC80008BF0024336804941A78013A052A00F2E2
:103AD800FC80DFE812F0E800EC00120122012E0160
:103AE800380102232B710DF10A01EB68039303A837
:103AF800CDE90444FFF736FE08B90A24D8E704984C
:103B0800BDF80A108388EB8003882B81FFF754FDEA
:103B1800044612E0DFF8509021464B4603AAA81D40
:103B2800FFF772FE044608BBB9F804100498FFF7C3
:103B380043FD04460A2C3FF40AAF002CB8D1A7E78E
:103B480010320020C8320020F0310020143200204A
:103B5800DC3200209C2A0020F8310020D4310020DB
:103B6800E832002008320020EC3200200822002130
:103B7800484607F020FADDE7002C7FF4BAAE734B15
:103B88001A7BAAB11C731A78013A062A8FD801A1A8
:103B980051F822F0433C0200693C0200873C0200D5
:103BA8008D3C0200B73A0200933C0200A53C02009B
:103BB8001A78072AE7D801A151F822F0E53B02005C
:103BC8008F3B02008F3B02000B3C02001F3C0200AF
:103BD8003F3C02003F3C0200073C02001A895C4956
:103BE80001321A8100225A801A730A78B2FA82F2D4
:103BF80052099A720A7DB2FA82F25209DA720122E5
:103C080007E0544958688A884088033202448A8009
:103C180002221A70B7E74E4C5A884E49142505FB04
:103C280002420868546850608888108102228A809D
:103C38000C600622EDE70722EBE79A7A32B9DA7AC6
:103C48008AB900221A705A805A6080E640490022D8
:103C58009A72CA68002AF2D1097C0029EFD05A80EA
:103C6800FFF714FE54E70022DA72394A116A002974
:103C7800E7D192F82420002AE3D00122EFE7FFF7EA
:103C8800B7FC45E7FFF754FC42E7314A5B8814214B
:103C980001FB03235868FFF77FFC39E700225A60CD
:103CA800FFF766FC34E700238DF80C300DE00122A5
:103CB8008DF80C201A89ADF818209A88DB680593CE
:103CC800ADF81A2000238DF81C3003A8FFF7F2FB8B
:103CD800002341462048336000F0B3FB1F4B01220C
:103CE80053E8000FA0EB020143E8001595F0000F20
:103CF800F6D100297FF4E4ADCAE602228DF80C2043
:103D08001A89ADF818209A88ADF81A20DA689B7DD0
:103D180005929A1F53425341D5E703228DF80C2090
:103D2800DA88ADF818201A89DB68ADF81A200593EF
:103D3800CBE7DB88ADF81830042200238DF80C207F
:103D4800ADF81A30F3E70523AEE700BFF8310020DD
:103D580014320020DC320020C8320020D832002083
:103D68004068FFF7A5BD000010B4094B012253E8D5
:103D7800000F00EB020143E8001494F0000FF6D1A5
:103D880018B95DF8044BFFF793BD5DF8044B704715
:103D9800D83200202DE9F3419846384B1B78064667
:103DA8000D46002B62D0002962D009884FF6FF73B8
:103DB80099425FD06B88002B5CD06B689B075BD106
:103DC8004AB92F890DF102013846FFF783FB30B15C
:103DD80002B0BDE8F08113885788ADF8023001A819
:103DE800FFF722FC044658B9BDF80230244A1421D2
:103DF80001FB032358890338C01B58810820E7E7D3
:103E080000238375BDF8023083826B68036180F8F4
:103E180000801C4B012253E8000F00EB020143E82D
:103E2800001C9CF0000FF6D12B882381B8F1030FFA
:103E38006B88A38004BF0423A3754FF0000508BF57
:103E48003368E16008BFA361E780658101A90E4876
:103E580000F0BCFA36B1E36833600C4B75601B891F
:103E6800B5723381FFF780FF0020B1E70220AFE78A
:103E78000520ADE70420ABE70320A9E7F0310020D7
:103E8800143200200C320020C8320020F831002003
:103E98000B4B1A68042A10B50FD01968094A42F862
:103EA8002100012253E8001F01EB020043E800044F
:103EB80094F0000FF6D1002010BD0C20FCE700BFE5
:103EC800E4320020E03100202DE9F04F14228BB0BD
:103ED80000210DEB020007F06EF8784A137803F022
:103EE800FF01CDE901123BB105A8FFF7E3FA00276E
:103EF80038460BB0BDE8F08F029B0122043353E82B
:103F0800001F41EA020043E8000494F0000FF6D1D4
:103F18000029ECD14FF010234FF080525B691169F2
:103F28005269674C581C08BF02FB01F32361002249
:103F3800A3F540536349E360204600F0A2FC0394D4
:103F480007460028D4D11C238C225F495F48DFF83C
:103F58008891DFF8888100F0DAF9BA463D464FF0DB
:103F6800030B3C46039BDE68564430463146FFF758
:103F780069FB01284DD042B2002A36D0032822D14D
:103F880006F580520868013040F08A8004318A4280
:103F9800F8D1D9F800203AB902220123C9F8006003
:103FA800A9F8042001930CE014226243022008EBD4
:103FB800020108F80200464A4E6054800134088124
:103FC800A4B245F001050AF5805ABAF5405FC9D197
:103FD800BBF1010F98BF0025EDB2022D03D0062DCD
:103FE80035D0002D3CD10B2782E71421614308EB23
:103FF800010008F8012001F110020831466042442E
:1040080041443046FFF74AFB45F002050134A4B2AB
:10401800D9E7019B63B11422624308EB0201022035
:1040280008F802000134D9F800204A600881A4B2D7
:1040380000222849C9F800603046FFF72FFBB9F87D
:104048000420022A0CBF042208221543BBE7029A67
:104058000123137005A800235360FFF72BFA47E7E5
:1040680004A8FFF7E1FAC8B10123013D03700A2D46
:1040780009D8DFE805F006080608070807080F1141
:104088000F000023037104A9104800F09FF9FFF7FF
:104098006BFE2DE70323F5E70223F3E7082727E75D
:1040A8000BF1FF321FFA82FB1422624308EB020174
:1040B8004E60032108F80210A8E700BFF031002085
:1040C8009C2A002074B302003C320020C832002031
:1040D800F8310020E0320020DC32002014320020C9
:1040E800F7B50C460546F0B1E9B10DF10601FFF749
:1040F80039FBD0B1BDF806300D4A6968142000FBC1
:1041080003230C33012253E8000F00EB020643E8B7
:10411800006797F0000FF6D121600C316160002034
:10412800AA7203B0F0BD0520FBE70A20F9E700BF3B
:104138001432002013B50446A8B10DF10601FFF7AB
:1041480011FB90B10B4ABDF80630142101FB032383
:10415800DA6862B1A27A52B1DA680020013ADA600C
:10416800A07202B010BD0520FBE70A20F9E706207F
:10417800F7E700BF143200200B4B1B7837B5044615
:104188000D4663B168B10DF106012846FFF7A2F9A3
:1041980018B9BDF806302380658003B030BD022011
:1041A800FBE70520F9E700BFF0310020104B1B7832
:1041B80010B5B3B1B8B10288022A16D80D494388A0
:1041C800142404FB02129C1C51898C420DDAC3F59D
:1041D8007F43FD330B4453810023038043801846FB
:1041E80010BD0220FCE70520FAE70420F8E700BF2D
:1041F800F03100201432002002230022FFF7CABD4C
:1042080012B10223FFF7C6BD0520704718B103237A
:104218000022FFF7BFBD052070470000104B1B7838
:1042280013B50446ABB14FF6FF73984213D001A8FB
:10423800FFF7FAF988B10523037001230371C480DD
:1042480001A9084800F0C2F8FFF78EFD002002B06F
:1042580010BD0220FBE70420F9E70820F7E700BFBC
:10426800F0310020C83200200E4B1B7807B5A3B1EF
:1042780001A8FFF7D9F990B10623037001A90A48EC
:1042880000F0A4F8094B1A780AB101221A73FFF753
:104298006BFD002003B05DF804FB0220FAE708205C
:1042A800F8E700BFF0310020C8320020F8310020C4
:1042B80007B5ADF80600ADF804100DF1060001A928
:1042C800FFF7A2FA03B05DF804FB07B51346ADF893
:1042D80006000A4600200DF10601FFF795FA03B023
:1042E8005DF804FB07B51346ADF806000A460DF164
:1042F80006000021FFF788FA03B05DF804FB20B13F
:1043080019B103680B60002070470520704710B58D
:1043180061B1B2FBF3F403FB1424A4B244B9C0E9BD
:10432800001484608281C381204610BD0E20FCE702
:104338000920FAE782B050E8022FC188B2EB324F69
:104348004FF0000317BF92B241EA014142EA01412E
:1043580004E04268B2EB324F08BF012340E8021282
:10436800002AE8D18DF807309DF80730002B0CBFE4
:104378001120002002B0704737B550E8013F9DB2C8
:10438800C48925448489A54228BF2D1B0489A542D8
:1043980002BFBFF32F8F002207E0C5EA030540E8FC
:1043A8000154002CE9D14FF001028DF8032001934C
:1043B800019B9DF803200B6002F0FF0322B10B88DC
:1043C8000068184403B030BD1846FBE70A884B88DC
:1043D8009A4209D150E8012FC2EA024240E801237B
:1043E800002BF7D1012070470020704737B550E8FF
:1043F800023F1FFAA3F5C488A54202BFBFF32F8F5F
:1044080000220DE0C48925448489A54228BF2D1BBC
:10441800C3EA054540E80254002CE8D14FF00102F8
:104428008DF803200193019B9DF803200B6002F097
:10443800FF0322B14B880068184403B030BD18460A
:10444800FBE70A884B889A4209D150E8022FC2EA52
:10445800224240E80223002BF7D1012070470020B8
:10446800704710B590B1D0E9012301689B1ADBB2FF
:104478000A60013BDBB2FF2B026802D100201071F9
:1044880010BD11684C1C14600B70F2E70E20F7E7A2
:1044980037B5054600240DF107008DF80740FEF7F3
:1044A800CFFF2A686B68116899420ED9481E1060C0
:1044B80011F8014CEB68298A01FB0434AB681179C7
:1044C8001B1ADBB2994238BF13719DF80700FEF73B
:1044D800DBFF204603B030BD37B5054600230DF19C
:1044E80007000C468DF80730FEF7AAFF2A68136804
:1044F800591C1160E968641A298AB4FBF1F41C702C
:104508009DF80700FEF7C0FF03B030BD826810B504
:1045180004462AB143690168006998470023A360EB
:1045280010BD0EB403B5039921B104AB01AA0193E0
:1045380000F06CF802B05DF804EB03B070478268D5
:1045480030B40468551C8560A154D0E901329A4200
:1045580002D330BCFFF7DABF30BC70472DE9F84F03
:104568009946DDE90A431746824688460A460126E7
:10457800BA420FD24E4538BF4E4613F0010B01D157
:1045880064B900240125B9F1010F1AD909F1FF39DD
:104598007D43F8E7B2FBF7F20136E9E79B070ED552
:1045A800B9F1000F0CBF30252025A642EAD2013C04
:1045B80029465046FFF7C3FF002CF6D1E1E7202536
:1045C800F3E7B8FBF5F39F42E2D9DFF83C90B8FB7C
:1045D800F5F3504619F8031005FB1388FFF7AFFFF2
:1045E800B5FBF7F3BD4207D2BBF1000F02D00CB107
:1045F800A64203D3BDE8F88F1D46E8E720215046C0
:10460800013CFFF79CFFF2E757B302002DE9F74F93
:10461800054617468846002900F0308118F8011B26
:1046280049B92B7B002B00F02981284603B0BDE84F
:10463800F04FFFF76BBF252940F0C080002698F89F
:1046480000302D2B424608F1010823D0302B24D00E
:104658002B2B25D000242A2B02F1010123D13B6802
:104668001A1D1B683A601C440A4613782E2B26D163
:1046780001324FF00009104610F8011BA1F1300C6F
:10468800BCF1090F1DD80A2303FB0913A3F1300954
:104698000246F0E746F00106D1E746F00206CEE70B
:1046A80046F00406CBE711F8013CA3F130000928D5
:1046B800DBD80A2202FB0434303C0A46CBE74FF031
:1046C800000912F8011B01F0FB0068289046F8D099
:1046D80069290ED04AD8582964D006D825296DD022
:1046E80098F80030002B99D19BE7632962D06429A0
:1046F800F6D13A68D2F800A0111D8AEAEA72396048
:10470800A2EBEA724FF0010B092A5BDCCB4538BFFC
:10471800CB462CB1BAF1000F01DB720700D5013C82
:10472800B30702D5B9F1000F04D0F00702D4002C6A
:104738004ED10024BAF1000F52DACAF1000A2D2135
:104748002846FFF7FCFE06F00302022A05D1B9F15C
:10475800000F02D1002C47D10024CDE900464B467A
:104768000A2251462846FFF7F9FEB9E773294CD0CB
:1047780014D87029B4D13B681A1D3A6030212846F4
:104788001C68FFF7DCFE78212846FFF7D8FE0022D8
:104798000823CDE9003221461022E3E775292BD002
:1047A80078299DD139680A1D3A60CDE900464B4603
:1047B800102228E03B681A1D19783A602846FFF74E
:1047C800BEFE8DE70A230BF1010BB2FBF3F29BE768
:1047D800A345AFD220212846013CFFF7B0FEA6E74B
:1047E8007107B0D52B21ABE7A345B6D230212846B7
:1047F800013CFFF7A4FEADE73968CDE900460A1D84
:104808003A604B460A220968ACE73B681A1D3A60D1
:1048180016F00106D3F800A020D1BAF1000F03D09A
:10482800504606F01DFC0646B44200D9C4B90AF148
:10483800FF3A1EE028460136FFF781FE1AF80610F7
:104848000029F7D1A642BFF44BAF002C3FF448AF84
:1048580020212846013CFFF772FEF3E70026EDE72A
:1048680020212846013CFFF76AFEDDE72846FFF7CE
:1048780066FE1AF8011F0029F8D131E703B0BDE838
:10488800F08F0B4620B11BB1036011461B68184717
:104898000E2070472DE9F04108B302B3D0F800E0CC
:1048A800BEF1000F1ED0FBB14768D7F80480B3FBF8
:1048B800F8F708FB1737BFB942EA010C1CF0030FE1
:1048C80014D1C768B94211D34C1E05691C44AC42C7
:1048D8000CD8DEF80C40A446BDE8F04160470E2035
:1048E800BDE8F0810820FBE70920F9E71020F7E789
:1048F800F0B59646C8B1D0F800C0BCF1000F16D08C
:10490800BAB147683D686F1E0F4214D1C768B942F3
:1049180011D34C1E02FB05440569AC420BD8DCF8E8
:104928001040A446BDE8F04060470E20F0BD0820C6
:10493800FCE70920FAE71020F8E7000070B508B195
:104948000368ABB90C4D0D4C0026641B1423B4FB53
:10495800F3F4B44201D1002009E02B6813B9013601
:104968001435F6E7DB69284698470028F7D070BD6C
:10497800DB69BDE8704018479C2A0020B02A002057
:1049880029DF704728DF704770B503689D6886B0D7
:1049980004460E466DB11022002101A806F00BFB5B
:1049A800A3680593237902962BB1012B0BD001A89C
:1049B800A84706B070BD01238DF80430236903931E
:1049C80063690493F3E702238DF80430E3681B035B
:1049D800F5E708467047002070470000024B187A38
:1049E800003018BF0120704790330020034B187A1D
:1049F8000122B0FA80F05A744009704790330020C1
:104A080008B510461A4606F0ADFA002008BD0000A9
:104A180008B514220021044806F0CDFA0348FFF730
:104A280089FC002008BD00BF90330020803300209F
:104A380038B5254C237A012B05D0022B42D1022808
:104A480008D0032831D0637C002B37D1BDE838402B
:104A580000F042B81D4B1B680022E2601A793AB197
:104A6800012AF0D11A6901321A615B699A420AE097
:104A7800D3E905128D1AB5F5805F94BF521902F576
:104A880080529A619142DED102284FF0000308BF9C
:104A9800194623720D4B18BF0D211868FFF774FFD4
:104AA8000B490C48FFF7CDFCCDE7E3680133082B31
:104AB80001D8E360C7E70023E360E5E7BDE83840D5
:104AC80005F0C0BF38BD00BF90330020A8330020D8
:104AD800A43300208033002070B5214C214E237A66
:104AE80025463BB920492148FFF780FC306008B9CA
:104AF800606070BD346802232B7223794BB1012B9F
:104B08001FD003212046FFF73FFF00232B726B6065
:104B1800EFE7D4E90523D21AB2F5805F28BF4FF436
:104B28008052D4E903109208012A38BF012219449F
:104B38001844FFF725FF50B11128E2D101232B7249
:104B4800D7E7D4E903031844FFF71CFFF3E72B7CEE
:104B5800002BCED10146BDE870400220FFF768BFA8
:104B680090330020A8330020A43300208033002095
:104B780000F0FD03012B08D1044B00225A74421E99
:104B8800504250411874FFF7A7BF70479033002078
:104B980038B50C4C012354E8002F42EA030144E8DD
:104BA800001595F0000FF6D152B9074B436005F098
:104BB80059FF1C2320748C2204490548FFF7A7FBE2
:104BC800002038BD9033002068B30200F432002082
:104BD8008033002033B40B4901220B1D53E8000F2A
:104BE800144643E8004595F0000FF7D10190019B6A
:104BF8002BB94B7C1BB902B030BCFFF76DBF02B0BC
:104C080030BC7047903300202DE9F34180460D46B3
:104C18000F4801A916461F46FFF7AEFB0446A8B188
:104C28001C22002106F0C7F92D0B0123237101A9CD
:104C3800C4F80080A760E56066610548FFF7C6FB19
:104C4800FFF7C8FF002002B0BDE8F0810420FAE7B2
:104C5800803300202DE9F74381468846104801A992
:104C680017461E46FFF788FB0446B0B11C220021F8
:104C780006F0A1F900250A9BA36001A92571C4F8D3
:104C88000090C4E9037866610548FFF79FFBFFF7CA
:104C9800A1FF284603B0BDE8F0830420FAE700BF6F
:104CA80080330020FFF7DDBBF8B546790146721E58
:104CB8000546002393422D6803D30024A64202D858
:104CC800F8BD0133F6E70F682846FFF705FC013405
:104CD8003946F3E72DE9F843068ACD1C0746FFF766
:104CE800D7FB043E35440446B5FBF6F5F0B14FF466
:104CF8008073EDB28380C680013D076081464FF026
:104D08000008A84512D23846FFF7C2FB064648B14C
:104D180063790133637108F10108C9F8000007607D
:104D28008146EEE72046FFF7BFFF34462046BDE840
:104D3800F88310B50430012350E8002F02EB03017B
:104D480040E8001494F0000FF6D110BD30B4031DF4
:104D5800012253E8004FA4EB020143E8001595F047
:104D6800000FF6D111F0FF0F02D130BCFFF79CBF46
:104D780030BC70472DE9F843C7880546181D88469A
:104D8800B0FBF7F4164607FB14003CB9A7EB000983
:104D9800B14528BFB14626B9BDE8F8832D68013C66
:104DA800F3E70430A6EB09064A4608EB0401284459
:104DB80006F0D8F8B7424C442D68B9464FF00000C9
:104DC80028BFB146E7E72DE9F843C7888846191D8B
:104DD8000546B1FBF7F4164607FB14113CB9A7EBDF
:104DE8000109B14528BFB14626B9BDE8F8832D6849
:104DF800013CF3E704312944A6EB09064A4608EBCF
:104E0800040006F0AFF8B7424C442D68B9464FF09D
:104E1800000128BFB146E7E70B684A684360934240
:104E280008BF0023016008BF43607047436843B16F
:104E38000268916852680B449342436004BF0023A0
:104E48004360704710B50D49A1F1F002914201D8B5
:104E580000200FE08B1ADB1003EBD3735B1002EB1F
:104E6800C30452F83330834205D802D204F1080251
:104E7800ECE7606810BD2146E8E700BFA0B4020077
:104E880008B5FFF7DFFF024B002808BF184608BD2A
:104E98009DB3020010B50023012101FA03F4044276
:104EA8009AB204D10133202BF7D14FF6FF72104686
:104EB80010BD70B59DF81050A0B199B192B1002401
:104EC80030F814609E4210D1012303FA04F4E6433B
:104ED800002351F8230035B1204341F82300013362
:104EE8009A42F6D170BD3040F7E70134202CE7D163
:104EF800F8E707B5009313460122FFF7DAFF03B07E
:104F08005DF804FB10B558B1002330F81340944203
:104F180007D1012202FA03F30B4214BF1046002006
:104F280010BD0133202BF0D10020F9E7F0B599B17D
:104F380000231C46012505FA04F616421EBF00EBA5
:104F4800430631F81470B78004F1010418BF013327
:104F5800202CF0D10360F0BD0B46FBE7074B1B5C30
:104F68001F2B8ABF064A4FF0A04203F01F03D2F856
:104F78000405D840C04300F00100704787B702001D
:104F880000030050074B1B5C1F2B86BF03F01F0359
:104F980005494FF0A041012202FA03F3C1F80C358C
:104FA800704700BF87B7020000030050074B1B5C27
:104FB8001F2B86BF03F01F0305494FF0A0410122B4
:104FC80002FA03F3C1F80835704700BF87B702003B
:104FD8000003005008B50020FFF7E8FF0120FFF7A5
:104FE800E5FF0220FFF7E2FF0320BDE80840FFF7D6
:104FF800DDBF08B50020FFF7C5FF0120FFF7C2FF9E
:105008000220FFF7BFFF0320BDE80840FFF7BABF43
:105018000A4B185C1F288ABF094B4FF0A04300F0C9
:105028001F00D3F804250121814021EA02000A402B
:10503800C3F80805C3F80C25704700BF87B70200FE
:10504800000300504FF0A0420323C2F83437C2F8DF
:105058003837C2F83C37C2F8303AFFF7BBBF4FF0D9
:10506800A043D3F81005C0F3C02070470B3818BF11
:105078004FF0FF3070470B207047000038B5074CE1
:10508800051E04F1080318BF1C4623682BB11A68D3
:1050980022605B6828469847F7E738BDB43300209C
:1050A80008B9FFF7EBBF7047064B01221A604FF0B3
:1050B8008042D2F8183413F48033FAD1024A93703C
:1050C800704700BF0C000040AC33002010B50E4CF8
:1050D8002378BBB96360A360E36023610B4B186856
:1050E80010F0010002D1072100F08AF805F0BAFC9F
:1050F80020B94FF080430122C3F8182501232370FB
:10510800002010BD8520FCE7AC33002000E100E062
:1051180007B500230DF107008DF80730FEF790F969
:10512800074BDA68013ADA60DB680BB9FFF7BCFFB6
:105138009DF80700FEF7A8F903B05DF804FB00BF6F
:10514800AC330020012813B509D018B103281CD0AE
:1051580002B010BD104B0122C3F88020F8E70F4CB5
:1051680000230DF107008DF80730FEF769F9237861
:105178000BB9FFF7ABFFE3689DF807000133E36065
:105188000123A370FEF780F9E2E70721002000F071
:1051980037F8FFF7BDFFDBE700E100E0AC330020A4
:1051A800144B07B51A686AB1002018601B68009391
:1051B8004FF08042009B0123C2F808330E4A537017
:1051C800FFF75CFF0D4B1A688AB100221A601B6852
:1051D8000193019B4FF080430222C3F80823064B3A
:1051E8000120987003B05DF804EBFFF747BF03B0E8
:1051F8005DF804FB00010040AC33002004010040CE
:10520800002810B5C3B2A8BF00F160424FEA5010A1
:10521800BABF03F00F040C4A02F561424FEA41118C
:105228004FEA8000C9B200F16040B4BF115582F85E
:10523800001300F5614003F01F0201239340C0F8FA
:105248008031036010BD00BF14ED00E000F1804024
:1052580000F5C040002382B0036003680193019BFE
:1052680002B0704703681F2B83BF03F01F0303605E
:1052780001484FF0A04070470003005007B5019067
:1052880001A8FFF7EFFF019B00EB8300D0F8002790
:1052980022F44032C0F80027D0F8003743EA01432F
:1052A800C0F8003703B05DF804FB0000054B4FF071
:1052B800FF32072843F8202084BF1B1883F85820A2
:1052C800704700BFC033002010B5144C94F8643008
:1052D8000BBB04F130033021FF22013911F0FF012B
:1052E80003F8012BF9D1C8B2FFF7E0FF01310C290F
:1052F800F9D107210620FFF783FF4FF4BE70FFF7AF
:10530800A5FF074B4FF00042C3F80423012384F89C
:105318006430002010BD0820FCE700BFC033002027
:1053280000600040034B93F86400003018BF012070
:10533800704700BFC0330020F7B5334E3318054619
:1053480093F93030002B5CDACB78002B0BBF0824A4
:1053580000240C200820844202D1042003B0F0BDB0
:1053680056F82470013716D1701946F8242080F8B1
:10537800304013B9331983F858508B786BB901A8AA
:105388004A780195FFF76EFF019B03F5E0739200E1
:1053980040F823200EE00134DDE701A80195FFF76E
:1053A80061FF019B00EB8300D0F8003723F0020374
:1053B800C0F80037C8780F78D0B1A40004F1804451
:1053C80004F5C0442B02D4F8102522F44F3222F4FD
:1053D8004072C4F810253F04D4F8102503F47C5318
:1053E80007F440373B431343C4F810350020B5E7B2
:1053F800083C344494F8603043EA871784F86070B6
:10540800ACE70820AAE700BFC033002037B5214C1D
:105418002318054693F93020072A19DD224492F80B
:1054280058309B09032B0FD1019001A8FFF71AFFF1
:10543800019AD0F81035D340DB0707D4022128465B
:10544800FFF71CFF03B030BD012BF7D00321F6E7AF
:10545800D3B2072BF6D8930003F1804303F5C0437A
:10546800D3F8100540F00100C3F8100502F1400020
:10547800800080B2FFF7EAFE0029E3D054F822301A
:10548800002BDFD0012303FA02F2034BC3F80423F5
:10549800D8E700BFC03300200060004007B5019086
:1054A80001A8FFF7DFFE019BD0F81005D84000F0F7
:1054B800010003B05DF804FB2DE9F04F002489B02A
:1054C800CDE90244624D4FF48072012102F180431C
:1054D80003F5C04390B21B68012B06D1D5F80433FD
:1054E8000B4202D0FFF7B2FE0C430432B2F5907FB4
:1054F8004FEA4101EAD1574B1B68012B0ED14FF4FB
:10550800BE70FFF7A3FE4FF0A04344F00044D3F869
:1055180010350293504BD3F81035039314F0FF0F56
:105528001AD04E4F00250126344210D0AB0003F1AB
:10553800804303F5C043D3F81005D3F8101557F886
:10554800253023B1C1F30141C0F305209847013547
:10555800082D4FEA4606E7D1002C75DA0DF1100840
:1055680000230493C8F804304FF0FF33CDE9063325
:10557800DFF8E8A0DFF8E89000273D4619F9014B6D
:10558800631C48D0E4B2012324F0C00604F00702EB
:1055980003FA02F2F00808AB191811F8083C134294
:1055A80039D00AEB0603A40993F930305AF823B02E
:1055B800BBF1000F08D1032C2DD118F800C04CEA1C
:1055C800020C08F800C001E0032CF6D001A80196EF
:1055D800FFF748FE019B11F8181C03F5E07C114207
:1055E80050F82C00C0F3014005D0022813D1032C39
:1055F8000BD1214604E003280DD1032C05D102214B
:105608003046FFF73BFE0135EDB2BBF1000F02D08B
:1056180021463046D8470137042FAFD1A5B14FF006
:10562800A0430299D3F8102503F540739142D3F8AB
:10563800103502D10399994206D002920393049A35
:10564800059B0692079395E709B0BDE8F08F00BF68
:10565800006000407C61004000030050C03300201F
:10566800203400200023435082B043580193019B0B
:1056780002B070470023435082B043580193019B06
:1056880002B070470A4610B54FF48E71FFF7EAFF73
:10569800938A91689BB2C95C938A01339BB29382C7
:1056A800C0F81C1510BD1FB582688DF808100023BE
:1056B8008DF8003083750192D0E900136846984749
:1056C80005B05DF804FB10B5CB7D0A464FF4847134
:1056D80023B9FFF7C7FFD0F8183510BDFFF7C2FF91
:1056E800537ED168D0F81805C854537E0133DBB215
:1056F8005376F2E71FB501238DF80030054B8DF87E
:10570800080001916846D3E90012904705B05DF89A
:1057180004FB00BF283400201F2886BF00F01F00AC
:10572800044B4FF0A04300F5E070032243F820201B
:10573800704700BF000300501F2886BF00F01F00FD
:10574800044B4FF0A04300F5E070022243F82020FC
:10575800704700BF000300501F2886BF00F01F00DD
:10576800044A4FF0A042012303FA00F0C2F80805EA
:10577800704700BF000300502DE9F8430679574DE4
:105788007601AB191746DA7E0446002A40F0A48059
:1057980008684A7F1A77431C04D0FFF7DDFF0868C2
:1057A800FFF7BAFF4A68501C0DD01F2A8BBF02F0C2
:1057B8001F0313464A484FF0A04003F5E0734FF02B
:1057C800000C40F823C094F804E091F814C0487D18
:1057D8002368D1F81890D1F8008005EB4E1E4CEAEA
:1057E80000009EF81CE0C3F82495C3F86C05BEF1D0
:1057F800000F5ED0C3F80C85C3F81425BCF1010F67
:105808001DD18B685A1C0BD01F2B86BF03F01F03BA
:10581800334A4FF0A04203F5E073002042F823001A
:10582800C868431C04D0FFF797FFC868FFF774FFE8
:10583800D1E902202368C3F80805C3F81025AB197D
:105848005F600B69AB5117B3237920680A7F05EBBA
:1058580043131B7F93B34FF48871FFF70BFF4FF48B
:1058680090712068FFF706FF4FF492712068FFF7E8
:1058780001FF20684FF4A271FFF7FCFE2068194B66
:10588800C0F80433114640F30730FFF7B9FC237919
:10589800226805EB43131B7FE3B108233544C2F8A4
:1058A800003500204FF480732876E8826B83BDE8CA
:1058B800F883C3F81425C3F80C859FE74FF48E715D
:1058C800FFF7D0FE20684FF4A271FFF7CBFE2068E7
:1058D800054BD5E70423E1E70820E8E72834002052
:1058E800000300501003020080000200F8B504799C
:1058F800304964010B191D7F0368002D3FD0002239
:10590800C3F800250A195268002A4FD0180B42B272
:1059180000F01F0652090120B0402032264E8DB3F8
:10592800264DC3F8085346F822004FF0FF32D3F84B
:105938000C05D3F81475D3F80855D3F81065C3F8D7
:105948000C25C3F81425C3F80825C3F81025431CF3
:1059580001D0FFF7F1FE781C02D03846FFF7ECFEC5
:10596800721C02D03046FFF7E7FE6B1C02D02846B7
:10597800FFF7E2FE21440023CB764B60F8BDC3F865
:105988000055BFE70E4DC3F8085346F822004FF004
:10599800FF32D3F80C05D3F81475D3F80855D3F8AB
:1059A8001065C3F81425C3F80C25CCE7002DEED0FC
:1059B800BBE700BF2834002000E100E0100302002C
:1059C800840202002DE9F04107793B4D4FEA471860
:1059D80005EB080306461B7F23B101F06040B0F1D8
:1059E800005F64D105EB0804A07D002861D1A08286
:1059F800A275A16030683BB34FF49071FFF73AFE8F
:105A08004FF4AC713068FFF735FE3268A37DA168AA
:105A1800C2F84415C2F8483501239360636813B18E
:105A28000020BDE8F081D2F82031D2F858011BB926
:105A38000028F8D00F2002E0002818BF0F2005EB3F
:105A4800080300229A75ECE74FF48E71FFF70AFEFF
:105A58003068012305EB471783603946FFF712FECC
:105A68006368002BDCD1A17DA28A91420DD8A38A5C
:105A78009BB2B3F5807FDDD03368D3F81C21002AB0
:105A8800FBD00122DA600020D9E73068D0F81C3159
:105A980023B9A38A9BB2B3F5807FF7D1A38A9BB2BF
:105AA800B3F5807FE0D03946FFF7ECFDDBE7102047
:105AB800B7E71120B5E700BF283400207FB5764C42
:105AC800764D237F002B64D0D5F82461002E3FD07B
:105AD8004FF492712846FFF7CDFD02238DF8003070
:105AE800D5F88034C5F880340393D5F83C358DF863
:105AF8000830E36801930023E37523766846D4E908
:105B080000139847654AD2F8443173B14FF4A27133
:105B18001046FFF7AFFDE37D3BB10023E375D2F8F4
:105B28003C05E168C0B2FFF7E5FD5C4AD2F82031D8
:105B380063B14FF490711046FFF79CFDA37D2BB124
:105B4800D2F84C155448C9B2FFF7ADFD04B070BD8A
:105B5800D5F81031002BD5D028464FF48871FFF7BF
:105B680089FDD5F83C35E07DDBB29842CAD1237E69
:105B7800E16863B1D5F8002222F02002C5F80022BE
:105B8800E3752369E3602676FFF7B4FDBAE7E375AA
:105B9800FAE7D5F804339A0548D5D5F82431002B0F
:105BA80044D04FF492712846FFF75CFD4FF401731F
:105BB800C5F80833A37E0BB901236B60374A02236B
:105BC8008DF80030D2F88034C2F880340393E37D36
:105BD8008DF80830E36801930023E375237668465F
:105BE800D4E9001398472D48D0F81C3133B1A38A63
:105BF800A27D9A4244D92849FFF744FD274AD2F8A2
:105C08004431002BA2D04FF4A2711046FFF72AFDB1
:105C1800A37E0BB101231360E37D002B96D00023F4
:105C2800607EE168E375FFF765FD8FE7D5F804331B
:105C38005B07D8D5D5F80831002BD4D016491748BA
:105C4800FFF741FD637EE27D9A42CCD1237EE16875
:105C58004BB1E3752369E3600023607E23766376A6
:105C6800FFF748FDBFE7A37E0BB901236B600B4B21
:105C78004FF40172C3F808230023E375607EEFE751
:105C88004FF48E71FFF7EEFCA17D0029B6D00248D3
:105C9800FFF709FDB2E700BF2834002000200040CC
:105CA8001F288ABF094B4FF0A04300F01F0003EBE9
:105CB8008000D0F8002722F44032C0F80027D0F83E
:105CC800003743EA0143C0F800377047000300502B
:105CD8000220FFF79DB9000008B5094B1B7853B1A6
:105CE8000020FFF763F90120FFF760F90320BDE802
:105CF8000840FFF75BB9BDE80840FFF76BB900BF84
:105D080049340020F8B5794C237805461BB10023A7
:105D18002370FFF7E1FF172D00F28480DFE805F01C
:105D28000C13133F5061727C8489848991969696EE
:105D38009696C0C5CDD5E0E0FFF7CEFF6C4B0024AA
:105D48001C702046F8BD0020FFF708F9F8B10020C4
:105D5800FFF72CF9022D0CBF4FF4E1614FF47A6183
:105D6800634B1D704FF400404FF4FA740025E0FBBC
:105D780001454FF47A7200232046294604F0F2FFC9
:105D8800002201465B48BDE8F840FDF703BBFFF77A
:105D9800F9F8022D0CBFC8214FF4C871E0E70020C4
:105DA800FFF7DCF840B10020FFF700F94FF4487125
:105DB8004F4B03221A70D5E7FFF7E4F8C821F7E73D
:105DC8000020FFF7CBF838B10020FFF7EFF84FF4C9
:105DD8007A61474B0422EDE7FFF7D4F84FF4C87116
:105DE800F7E70020FFF7BAF848B10020FFF7DEF820
:105DF8003F4B05221A7041F69A110022C2E7FFF7BD
:105E0800C1F8F5E70020FFF703F9394B06221A70AD
:105E1800002240F6CD41B5E70020FFF7B3F8344B38
:105E280007221A7000248CE701202070FFF7F0F891
:105E3800EEE701202070FFF7EBF800224FF48041D5
:105E4800A0E7FFF7D6F82A4B0C22EAE72A482B4EA0
:105E5800FDF7E6FAD5F1110504461CD0D8B9012D95
:105E680013D0C8235D434FF400474FF4FA70002164
:105E78004FF47A720023C7FB050104F073FF224632
:105E880001461D48FDF786FA04460220FFF77AF816
:105E98000123337055E70220FFF788F80023F8E75D
:105EA800FFF71AFF124B1222BBE7FFF715FF00207E
:105EB800FFF768F80E4B1322B3E7FFF70DFF012039
:105EC800FFF760F80A4B1422ABE7FFF705FF002045
:105ED800FFF758F80120FFF755F8054B1522A0E702
:105EE800FFF787F8024B1D709CE700BF9434002031
:105EF800BC340020983400204C3400204934002061
:105F0800044B1B68DB0703D5034B1878FFF7FABE71
:105F1800704700BF90340020BC3400202DE9F041C8
:105F280007460C46FFF7A2F820B9012C04D0ECB1C3
:105F3800022C25D0BDE8F081134D6A782C7842B147
:105F4800124E134832464FF40041FDF723FA00B9C8
:105F58003770104BAA781A70002CEBD00E4B1B68C8
:105F6800002BE7D02046BDE8F04118470848FDF768
:105F780057FA054B9C78074B1B78A342DAD1EBE71D
:105F8800014B5C78E8E700BF8C34002048340020DF
:105F98006C340020BD340020B83400200221007881
:105FA800FFF7BCBFFFF75BB8044B1B6813F0010396
:105FB80001D0FFF7A7BE1846704700BF90340020F5
:105FC800184B13B51860184B044610F002001960FE
:105FD80011D0164B16480E221A70012140F2666243
:105FE800FCF7C8FE38B9FCF715FF20B90146114A7D
:105FF8001148FDF7BDF9E30703D50190FFF722F833
:10600800019868B901460D4A0D48FDF7B1F938B94C
:106018000C4A0D48012102B0BDE81040FDF7A8B9AF
:1060280002B010BD90340020B83400208C34002019
:10603800A0B70200A55F0200ACB70200095F02002A
:10604800B0B70200D95C0200A8B7020048B9012A1B
:1060580002D1012907D00246012905D051B10229F0
:1060680005D0072070470E22044B1A707047034B67
:106078005A707047014B9A70704700BF8C340020EB
:1060880008B5FEF7F8FF0221FFF70AFE002008BD59
:1060980008B5012202210020FFF7D8FF08B1072820
:1060A80010D1072202210020FFF7D0FF08B10728EE
:1060B80008D100210A220846FFF7C8FF10B10728B7
:1060C80008BF002008BD00000388102B10B502D0BF
:1060D800112B1ED010BD1A4C2168B1B901220846F7
:1060E800FFF7B4FF08B1072824D1072202210020B6
:1060F800FFF7ACFF08B107281CD1042202210020B9
:10610800FFF7A4FF08B1072814D1236801332360DF
:10611800E0E70B4A1368013B1360002BDAD1FFF765
:10612800B7FF0028D6D0074B1B68002BD2D0BDE89C
:1061380010401847034B1B68002BE6D09847E4E74C
:10614800C4340020C034002008B50020FFF798FFB1
:1061580008B1062806D10020FFF792FF10B10628E3
:1061680008BF002008BD00000D4B10B518600C4694
:1061780029B10020FFF716FF40B102232370094B15
:106188001B6853B9BDE81040FFF782BFFFF70AFF4D
:1061980008B10B23F2E72070F1E7002010BD00BF23
:1061A800C0340020C434002076DF704778DF7047A1
:1061B8007ADF70477CDF7047A8DF704766DF70477B
:1061C80032DF70473EDF7047014B01221A7070477B
:1061D800C2350020FCF734BE08B50020FFF7E4FE06
:1061E80008B1FCF72DFEFFF7AFFF08B1FCF728FE5A
:1061F800FFF7E6FF18B1BDE80840FCF721BE08BD6F
:106208001FB50388112B044621D009D8012B3ED095
:10621800102B25D021462B4800F0F0FA04B010BD11
:10622800512B39D0562B2DD03B2BF3D1264B274958
:106238001888000440F00400FCF7A8FB1321A0888C
:10624800FFF7B2FF0028E5D0FCF7FAFDE2E71E4BA6
:106258001F491888000440F00300FCF797FBD9E7B2
:10626800194B1C491888000440F00300FCF78EFB0A
:106278000720FFF799FE08B1FCF7E2FD164BA2884C
:106288001A80C7E7104B154918880004D2E7002187
:106298008088FFF793FFD5E78379002BBAD0827BFC
:1062A800043A022AB6D8022B18BF01238DF8003011
:1062B80069464FF4C1738088ADF80430FFF77CFF5E
:1062C800C0E700BFB4350020182A0020FAB7020042
:1062D800E1B70200EFB70200D42A00200FB802008D
:1062E80008B503784BB9054B3B211888FFF75CFFCD
:1062F80018B1BDE80840FCF7A3BD08BDD42A0020AA
:10630800072808B513D00A280DD0042819D10D4B39
:1063180013211888FFF748FF30F0080311D0BDE8B3
:106328000840FCF78DBDBDE80840FFF755BF054B99
:106338001A884FF6FF739A4203D1034801F03AFADC
:10634800EAE708BDD42A0020C834002008B588B17F
:10635800032813D10A4B0B491888000440F00300A6
:10636800FCF714FB0220FFF71FFE38B1BDE8084018
:10637800FCF766BDBDE80840FFF72EBF08BD00BFAB
:10638800182A002094B8020008B50321044801F037
:10639800E7F818B1BDE80840FCF752BD08BD00BFDA
:1063A800C834002030B5037885B004460F2B11D8C7
:1063B800DFE803F00810121023102B40103C1040A7
:1063C800364010391C4B1D491888000440F0030062
:1063D800FCF7DCFA05B030BD174B40881D8801F08A
:1063E800BFFB2D04237A009345F00305024663881A
:1063F80013492846FCF7E1FAECE7002303A9408893
:106408008DF80C3003F036F9E4E7FDF72DFF0E2880
:106418000346DFD033F00803DCD0FCF711FDD9E7E1
:10642800FFF7B2FFD6E703F029F9D3E700690028A0
:10643800D0D0F2E78068FAE7182A0020A6B8020050
:10644800CFB8020007B50A499368088851680191D6
:106458001288009200041A46064940F00100FCF731
:10646800B8FAFCF7F9FAFCF755F90028FBD1FEE772
:10647800182A0020B8B702001FB500F094F908B137
:10648800FCF7DEFC0023039340F2C713ADF80C3091
:1064980003A818238DF80E3000F078F908B1FCF73E
:1064A800CFFC102301A88DF8043000F074F908B16E
:1064B800FCF7C6FC012302A88DF8083000F06FF93C
:1064C80008B1FCF7BDFC05B05DF804FBF0B5002091
:1064D800AFB0FCF7B7F808B1FCF7B2FC974CFCF783
:1064E8000BF820889649000440F00300FCF74EFAA8
:1064F800FCF70EFF08B1FCF7A3FC92490320FFF755
:106508005FFD08B1FCF79CFC06A90020FFF72CFEF4
:1065180008B1FCF795FC9DF8185004F03FFA08B153
:10652800FCF78EFC002306A90120069304F0EEFA7E
:1065380008B1FCF785FC06A804F0B0FB08B1FCF72D
:106548007FFC112380488DF8143004F089FD7E49C2
:1065580082B205A8FFF72EFE08B1FCF771FC4FF4D4
:106568008860FFF723FE08B1FCF76AFC00210822C7
:1065780006A804F020FD75494FF0C87306A8CDE9B8
:106588000613FFF715FE08B1FCF75AFC0021704806
:1065980002F0D0F808B1FCF753FC6E4800F04EF951
:1065A800A022002106A804F006FD02238DF8183069
:1065B80040F20163684AADF81A300123ADF828307B
:1065C8000B928DF8943096220023CDE9282306A952
:1065D800624B63482C9300F01FFF08B1FCF730FCB6
:1065E80001215F4800F015FF1C22002106A804F0D5
:1065F800E2FC00234FF42032CDE90632ADF8263014
:106608004FF470228DF82830564B08920B930322D2
:10661800554B8DF8242006A80C9301F0E7F908B132
:10662800FCF70EFC02F0C6FF08B1FCF709FC0522D6
:10663800002106A804F0BFFC069B03F07C424B4BEC
:10664800134306939DF81C3023F0030343F0030320
:1066580006A88DF81C3003F003F808B1FCF7F0FB2E
:10666800434802F0E5FF08B1FCF7EAFBFFF704FF37
:10667800FEF758FE20B9FEF727FE08B1FCF7E0FB4D
:106688003C4B3D4A1868069006A91E20FEF754FEAA
:1066980008B1FCF7D5FB01211E20FEF7B7FE2088C4
:1066A8003649000440F00300FCF770F9022D42D18E
:1066B80020883349000440F00300FCF767F902F032
:1066C800EFFF08B1FCF7BCFB2E4E224D3746FCF716
:1066D80021F80028FBD1FFF775FD08B1FCF7B0FBE6
:1066E8003378002BF3D006A800F06DF808B1FCF75A
:1066F800A7FB2A884FF6FF739A4208D02B7B33B149
:1067080006A9284600F012F908B1FCF799FB208881
:10671800BDF91810BDF91A30BDF91C200004CDE9E7
:106728000231CDE9001240F003001749FCF75FF988
:1067380000233B70CBE7FFF727FEC5E7182A0020A8
:1067480024B80200096302002DB8020006004001C7
:10675800A0350020B4350020D02A0020556302005F
:10676800C8340020E9620200DD610200310710032D
:10677800AD630200B4B70200D161020035B802006F
:1067880057B80200C235002064B80200014604224E
:10679800192000F00FB90178372000F035B90178D9
:1067A800382000F031B908B500F0F0F850B90721E9
:1067B800682000F029F928B901216B20BDE80840BC
:1067C80000F022B908BD13B50622044669463B20ED
:1067D80000F03AF940B90DF10503A21D13F80119AB
:1067E80004F8011B9442F9D102B010BDA0DF704734
:1067F800A2DF7047A6DF704762DF70470B88112B56
:1068080010B5044606D0502B07D0102B01D18B8829
:10681800038010BD4FF6FF730380CA8823899A420C
:10682800F7D10B8A022BF4D101F1120001F00CFA16
:1068380010B101232373ECE72073EAE7F0B53A4B74
:1068480097B006AA044603F1100716461868596857
:10685800154603C50833BB422A46F7D14FF20D034C
:106868000DF10A013046ADF80830FFF7C5FF08B151
:10687800FCF7E6FA4FF6FF73238000232373A21C6C
:1068880002A90120FFF7B2FF08B1FCF7D9FA0125E8
:106898004AF6CE431C2200210FA8ADF80C308DF823
:1068A8000E5004F088FB9DF80230CDF850D065F307
:1068B80042038DF802309DF83C3001AE23F01A03F4
:1068C80043F01A0341F211170322002130468DF8D4
:1068D8003C30ADF8007004F06EFB9DF80630ADF862
:1068E800047065F34203142200210AA88DF80630CB
:1068F80004F061FB03ABCDE90A3606230022ADF8AC
:106908003430ADF8303004AB0492ADF814200E9357
:106918000AAA231D0FA96088FFF76AFF08B1FCF7D0
:106928008FFA17B0F0BD00BF0FB9020030B502886A
:106938004FF6FF739A4287B004460D461CD0037B7E
:10694800D3B106230021102202A8ADF8063004F0C6
:1069580032FBA388ADF8083001238DF80A300023F4
:10696800ADF80C3002A90DF106032088CDE90435F5
:10697800FFF740FF07B030BD0820FBE7037813B9E5
:10698800014B01221A707047DF3500201FB5064BF6
:106998000FCB6C4684E80F000023044A04482146C4
:1069A80000F0A0F804B010BD20B90200856902000B
:1069B80030B902000D2A37B5034619D80F4D2846BD
:1069C800541C00F8013B224604F0CCFA0023009343
:1069D800E2B229460A4800F0BDF938B9094A41F23D
:1069E8008833117831B9013BFBD10D2003B030BD9C
:1069F8000C20FBE700231370F8E700BFD135002017
:106A080030B90200DF3500201FB500238DF80C00D7
:106A18008DF80D100093022203A9094800F09AF995
:106A280038B9084A41F28833117829B9013BFBD1BA
:106A38000D2005B05DF804FB00231370F9E700BFD3
:106A480030B90200DF3500207FB5531C60F07F00AD
:106A5800DBB28DF80F0000930E4615460D4B0E481D
:106A680001220DF10F0100F075F9044638B90B4AFF
:106A780041F28833117829B9013BFBD10D24204616
:106A880004B070BD0023137005492A46304604F04F
:106A980069FAF4E7C335002030B90200DF35002079
:106AA800C43500201F2886BF00F01F00044A4FF09D
:106AB800A042012303FA00F0C2F80805704700BF9E
:106AC800000300501F2886BF00F01F00044A4FF043
:106AD800A042012303FA00F0C2F80C05704700BF7A
:106AE800000300502DE9F0414679534D0746242014
:106AF80070432C1894F81CC0BCF1000F40F099802A
:106B080063600B7B2A50012B087800F28380FFF723
:106B1800D9FF0B781F2B86BF03F01F03474A4FF09E
:106B2800A04203F5E073012042F823004C78FF2CC3
:106B380073D02046FFF7C6FF1F2C8BBF04F01F033E
:106B480023463E4A4FF0A04203F5E073032042F883
:106B5800230091F80280B8F1FF0F61D0B8F11F0F40
:106B68008BBF08F01F034346344A4FF0A04203F599
:106B7800E073042042F82300C878FF280ED0FFF7FE
:106B880091FFCB781F2B86BF03F01F032B4A4FF0D2
:106B9800A04203F5E073032042F823007B79242206
:106BA80002FB0353CA789A773A680B78C2F808351B
:106BB8008B68C2F80C45C2F81085C2F824354B7BA7
:106BC800087B003318BF012302282CD003282DD0BE
:106BD800012801D143F00203C2F854354B79C2F8B9
:106BE800C03524237343EB5813B14020C2F8040383
:106BF8000720C2F8000523B1097997F90400FEF7C8
:106C0800FFFA242303FB06550020012368772B771E
:106C1800BDE8F081FFF746FF7BE74FF0FF3498E7C8
:106C28004FF0FF38A8E743F00403D5E743F0060325
:106C3800D2E70820ECE700BFE03500200003005051
:106C48002DE9F74390F80580414D242303FB08F311
:106C58001446EA180F46517F8146002975D1EB5832
:106C680023B114F0140F04BF0123537797E80F00E2
:106C7800242606FB08F605EB060E0EF10C0C8CE834
:106C88000F0020362E44737823F0070373709EF8A4
:106C98001E00FF2801D0FFF715FF396821B101F068
:106CA8006043B3F1005F06D1BA686AB102F060438D
:106CB800B3F1005F08D0242303FB085500236B774A
:106CC800102003B0BDE8F083D9F800303879C3F854
:106CD8004415C3F84805397BC3F834250022C3F8A6
:106CE8003815C3F81821D3F818210192019A14F025
:106CF800010218BF0122C3F8502514F0020218BF80
:106D08000122C3F8402522075CBF01221A61242210
:106D180002FB08F2AA586AB9D3F81821002AFBD056
:106D2800242303FB0855A87FFF2801D0FFF7BAFEEC
:106D38000020C6E714F004004FF0400202D0C3F868
:106D48000823F5E7C3F80423BBE71120B9E700BF20
:106D5800E03500201FB5009102938DF804209DF8BE
:106D680018308DF80C3000226946FFF769FF05B02E
:106D78005DF804FB0D4BD3F8183113B5A3B10C4BD8
:106D88000C4900241C60887F1B680193FF28019B25
:106D980001D0FFF787FE4C770C72D1E90031064825
:106DA80002B0BDE81040184702B010BD00300040E6
:106DB80018310040E0350020E83500200369C1683B
:106DC8008B429DBF8268D21802F1FF3203F1FF3374
:106DD80094BF501A581A70472DE9F041D0E902744F
:106DE80005463E1B4068964220448846144404D910
:106DF80004F0B8F8EC60BDE8F0813246E41B04F01A
:106E0800B1F8224608EB06016868F1E72DE9F84376
:106E1800C5680646894617464FF000083469B368C6
:106E28007068A54228BFE418013C621B5C1BBC4289
:106E380028BF3C46944228BF144649462844224667
:106E480004F090F8B3682544AB4208BF00253F1B07
:106E5800A044A144F560E1D14046BDE8F8830000B4
:106E680010B5114C114AA2610223C4E90433104B36
:106E7800E361A2644FF400730E4A2362E2640023C4
:106E880010220D49A362E01D6362E362A365636596
:106E9800E365226504F0C2F80849204604F0BEF80C
:106EA8002023A37110BD00BF043600203CB90200A6
:106EB8008C3600207C36002045B9020049B9020012
:106EC800F8B5184C182300FB033503FB0040254494
:106ED800C46A012C0F46164611D024B1022C1BD0CF
:106EE80000242046F8BD2846FFF768FFB042F8D3D3
:106EF800324639462846FFF76FFF3446F1E7284601
:106F0800FFF75CFF8642344628BF044622463946CE
:106F18002846FFF761FFE4E72846BDE8F840FFF799
:106F280075BF00BF04360020FFF79ABF6DDF7047BA
:106F380072DF704779DF70477DDF704764DF704725
:106F48002DE9F04F85B000250E9CBDF83CB0278890
:106F58000191804691469A462E46B8F80020B242E2
:106F68000CDC3DB12288013AD21B92B2FF2A3BD8F1
:106F78000AF80720002005B0BDE8F08FD8F80420F3
:106F880052F82600039000220DF10B0103A8FFF729
:106F9800D5FF0028EFD19DF80B204A4522D1228841
:106FA800002D14BF0020022002EB090101445945BD
:106FB8001ADC45B9013292B2019B22800AF80230EC
:106FC80022880132228022880DF10B01524403A845
:106FD800FFF7B4FF0028CED121889DF80B200A4482
:106FE800228001250136B8E70C20C4E72DE9F341DA
:106FF800089CBDF824501746CDE9004502220646F4
:107008009846FFF79DFF50B943461022394630464F
:10701800CDE9084502B0BDE8F041FFF791BF02B0E5
:10702800BDE8F0812DE9F04F00231688138090F811
:107038002D3085B007460D46144653B3082E01D8A7
:107048000C2007E102A8FFF771FF002840F0028139
:1070580023880822EA54238801339BB21B22238009
:10706800EA542088013080B2208006220DF10901FF
:10707800284403F077FF23889DF8082006339BB245
:1070880012F0FE0218BF01222380EA54238801333C
:107098002380BB78FBB123880433B342D0D802A83D
:1070A800FFF748FF002840F0D58023880322EA54E0
:1070B800238801339BB219222380EA542388BDF820
:1070C800082001339BB2E9182380EA54120A4A7057
:1070D800238802332380FA789AB12388D91CB142D5
:1070E800AED80221E954238801339BB201212380C1
:1070F800E95423880B449BB22380EA5423880B4429
:1071080023807A68AAB12388D91CB14298D8022171
:1071180092F90020E954238801339BB20A21238085
:10712800E954238801339BB22380EA54238801332E
:1071380023803B89002B40F081803B8A53B1CDE905
:1071480000462B460722032107F11000FFF74EFFE8
:1071580000287FD13B8B53B1CDE900462B46152241
:10716800142107F11800FFF741FF002872D13A6A8D
:10717800002A72D1D7F82480B8F1000F30D0B8F8BF
:1071880004302188981C8A1C0244B2423FF658AF4A
:10719800FE283FF655AF03336B54238801339BB267
:1071A800FF222380EA54238801339BB22380B8F856
:1071B8000020EA54E918120A4A702088023080B286
:1071C8002080B8F804205AB1D8F8081000294ED009
:1071D800284403F0C7FE2388B8F80420134423800A
:1071E80097F82C30002B7DD1387898B33B88012B49
:1071F8003DD0228802F1020CB4453FF621AF0128A8
:1072080005D17B78023313449E42FFF419AF023E46
:10721800B61AB6B202A905EB0C00ADF80860FFF784
:107228008BFEB8B93B78022B40F09F80BDF8083040
:10723800B34240F2B580ADF808609FE0CDE9004662
:107248002B460622022107F10800FFF7CFFE00288F
:107258003FF473AF05B0BDE8F08FB4F800C00CF18F
:107268000603B3423FF6ECAE1188052901D8072082
:10727800F0E76FF4486E01EB0E039BB24FF27D3ED0
:107288007345F4D95388052BF1D96FF44860181861
:1072980080B27045EBD94FF6FF70814203D083422C
:1072A80001D09942E3D8052305F80C30238801332F
:1072B8009BB212212380E954238801339BB2238097
:1072C8001188E954E818090A4170238802339BB2EF
:1072D80023805288EA54E918120A4A702388023334
:1072E800238047E7BB6A002BC1D04FF000094FF05D
:1072F8000C0A4FF0160B97F82C305FFA89F293427C
:107308007FF672AFB96A0AFB02F201EB0208B8F81D
:107318000430981CFE283FF693AE208803332B5484
:10732800238801339BB2238005F803B023880133F7
:107338009BB223808A5AEA54E918120A4A702088B4
:10734800023080B22080B8F804205AB1D8F808106A
:1073580000298CD0284403F005FE2388B8F80420BF
:107368001344238009F10109C5E7012B7FF463AFBA
:107378007B789E42FFF45FAFADF808300821BDF876
:107388000830FE2B3FF65CAE22880133AB542288CE
:10739800013292B22280A95422881344238059E7EB
:1073A8000921ECE730B593B01F230D46ADF8043042
:1073B800ADF80630044610B3C3785B0702D4072043
:1073C80013B030BD01AA02A9FFF72CFE0028F7D19F
:1073D80002ACBDB1EB78002BF1D10DF106020AA980
:1073E8002846FFF71FFE0028EAD10AAD9DF80630AF
:1073F8009DF804102A462046FFF79AFDE0E7ADF80D
:107408000400E6E7ADF80650F0E773DF704774DF75
:10741800704780F824107047F8B504460D460029D7
:1074280000F09C80002800F099800026012301F1DB
:10743800780C0370C670071DBCE80F000FC79CE8E6
:107448000F0087E80F0084F82460D5F89830C4F856
:10745800CC30D5F89C30C4F8D0304FF6FF73A4F880
:10746800C8300722314604F1250004F1300703F043
:10747800A2FD3C223146384603F09DFD2B7884F866
:107488003030AB7884F83230EB7884F833306B786E
:1074980084F8313005F1100292E8030004F140034A
:1074A80005F1080283E8030092E8030004F13803B9
:1074B80005F1180283E8030092E8030004F1480389
:1074C8006A6A83E8030095F82D3084F85D30B2B914
:1074D800A96A41BB2B6A43B104F1C40222655A88E8
:1074E8001B88A4F8C620A4F8C4306B6803B1636392
:1074F80005F13C013846BDE8F840FFF753BF118855
:10750800A4F86C1004F16C0363659188A4F87010FA
:1075180004F178036367B142DAD99068805D03F8B3
:10752800010B0136F7E704F198028888A26504F197
:10753800A4030A88A4F89820C4F8A030A4F89C00F2
:107548000022904204D895F82C3084F85C30C1E7CA
:107558008E68B65C03F8016B0132F2E70E20F8BDC5
:10756800F0B5077885B004460D46002F00F0D680A8
:10757800E1700020FDF7E2F9014620B101236370B4
:10758800002005B0F0BD04F125060722304603F0BF
:1075980012FDE38813B1E378012B04D0E37953B1EA
:1075A800E378022B07D1D4F8CC30A3B1012284F8B8
:1075B8002C2008209847334604F12B0113F8012F9B
:1075C80012B99942FAD117466B1E032B38D8DFE857
:1075D80003F005080B0D84F82C30ECE7A37903B110
:1075E8004FB9E37903B16FBB237A6BBB637A002B86
:1075F8000CBF00250425D4F8CC30E57033B3033D27
:10760800012D23D862790AB394F8D420F2B984F80A
:10761800D620012284F8D52007209847102200217F
:10762800684603F0C8FCE27800238DF800308DF836
:107638000830042A18D8DFE802F0470D212C4B0047
:107648000025D8E70225D6E70325D4E7002384F8E8
:10765800D530E3E70123A3708DF8003000230196AD
:10766800ADF80C30ADF80A30E378002B4ED1D4F8E1
:10767800CC30002B84D0A078984781E70223A370F0
:1076880001238DF800302369ADF80C300196E368CA
:10769800E8E76369ADF80A30A369ADF80C3063799F
:1076A800A3B194F8D41089B994F8D63073B10223F1
:1076B8008DF80830042384F8333004F13000FFF7E4
:1076C80071FE0028D0D10523A370CDE70323FBE783
:1076D800E369ADF80A30236AADF80C3063799BB1E1
:1076E80094F8D41081B994F8D6306BB102238DF890
:1076F8000830042384F8333004F13000FFF752FED9
:107708000028B1D10623DFE70423DDE794F824102D
:107718006846FFF77AFE0028A9D032E7082030E74C
:107728000388112B10B50C460AD01B2B20D0102B28
:1077380005D1C37B012B02D18388A1F8C83010BDC5
:107748000022838881F8D420B1F8C8209A42F6D163
:107758000B79002BF3D101212046FFF701FF002808
:10776800EDD0D4F8D030002BE9D0BDE81040184750
:10777800037A002BE3D1C97805230131B1FBF3F378
:1077880003EB8303C91AC9B2E6E70238012810B52A
:107798000C460ED84B7863B100234B702046C9784D
:1077A800FFF7DEFE28B1D4F8D03013B1BDE81040A1
:1077B800184710BD38B50446FFF729FE012384F8A1
:1077C800D4300021062384F8D61084F8333004F12D
:1077D8003000FFF7E7FD054640B9E1782046FFF79E
:1077E800BFFE18B1D4F8D03003B19847284638BD49
:1077F80075DF704776DF70477ADF70477BDF704749
:10780800034B1A8882420CBF18460020704700BFFD
:10781800A8380020024B9B6903B11847704700BF86
:107828008C38002073B586B23046FFF7E9FF04466E
:1078380070B1164D027A2B7B9A420BD200F10A01E5
:107848003046FFF7D5FFE8B1112801D0FFF7E2FF76
:1078580002B070BD002303722B7C43B13B2130463C
:10786800FFF7C8FF30F0080301D0FFF7D3FF6B69BB
:10787800002BEDD000228DF80420ADF8066001A899
:107888009847E5E7237A01332372E1E78C38002033
:1078980013B50B46497A0F4C024669B9D4E9011071
:1078A8001C7A002C18BF01465868FBF773FD08B115
:1078B800FFF7B0FF02B010BD002119726369002BF9
:1078C800F8D00121ADF806008DF8041001A89847FA
:1078D800F0E700BF8C3800204B8802889A4213D802
:1078E80042889A4210D380888A8840F2F3139842DB
:1078F80094BF031AC31A934206D800F2F3109042B9
:1079080034BF002001207047002070470388112BE6
:1079180070B5014648D002D8102B1ED070BD122B6E
:1079280052D0502BFAD12F4BC288DB899A42F5D11D
:10793800038A022BF2D186883046FFF761FF05469D
:107948000028EBD001F1120000F07EF930BB686826
:10795800FBF766FD0028E1D009E0C37B012BDDD1F0
:107968004FF6FF70FFF74CFF054620B90420BDE82D
:107978007040FFF74FBF1C4A8E88068000230372B1
:107988001368C5F80A300A30536843601031FFF7AE
:10799800A3FF144B6872DB89002BBFD12946304600
:1079A800BDE87040FFF774BF8088FFF729FF0446E1
:1079B8000028B3D04068FBF733FD08B1FFF72AFF72
:1079C8004FF6FF732380A9E786883046FFF718FF34
:1079D80005460028A2D008310A30FFF77DFF6872FB
:1079E800DCE700BF8C380020BC380020F8B506461C
:1079F80048B305460FCD154F3C460FC495E8070020
:107A080084E807003068124C3C60B0B1FFF7F4FE20
:107A1800C0B9326813682360536863600D480E4A22
:107A28004FF6FF7303800D4B40F8043F0021FBF72E
:107A38009FFC002818BF032004E02046FFF7DEFE65
:107A48000028EBD0F8BD0E20FCE700BF8C380020E2
:107A5800BC380020A83800202D780200C438002047
:107A68002DE9F0430388112B95B006464CD01A2B0C
:107A780050D0102B63D1334DD5E91132291D23EA9B
:107A8800020203A8FDF752FA002404AFA04605F14C
:107A98004409039B9C420ED3686CB488C043FDF72D
:107AA800F9F94FF6FF73984210D1042015B0BDE8DC
:107AB800F043FBF7C5B9CDF8008037F8023B224800
:107AC8001D224946FDF7F5F90134E2E71F4905EBA8
