:020000022000DC
:102000000000042055220200AD220200AF2202008F
:10201000B1220200B3220200B5220200000000003B
:10202000000000000000000000000000B7220200D5
:10203000B922020000000000BB220200BD22020003
:10204000F17A0200C3220200A58E02001DBB02002D
:1020500035BB0200CB220200CD850200CF22020058
:10206000D1220200D3220200D5220200D722020090
:10207000D9220200DB220200DD220200DF22020060
:10208000E12202004D410200E5220200E7220200A7
:102090008D410200EB220200C92B0300EF22020057
:1020A000F1220200F3220200F5220200F7220200D0
:1020B000F9220200FB220200BF220200BF2202001E
:1020C000FD220200FF22020001230200032302007E
:1020D0000523020007230200092302000B2302004C
:1020E0000D2302000F23020011230200132302001C
:0820F000BF22020015230200CB
:1020F800354936480A1A02D0072291438D46344999
:1021080034480A1A06D00722914381F3098802222B
:1021180082F3148830483149314A00F044F8314894
:102128003149324A00F03FF831483249324A00F02A
:102138003AF832483249334A00F035F832483349E0
:10214800334A00F030F833483349344A00F02BF86A
:1021580033483449344A00F026F8344834490022D8
:1021680000F02CF833483449002200F027F83348AF
:102178003349091A082902DB002202604160314A0A
:1021880090471F481F49884205D00268043003B4AD
:10219800904703BCF7E700208646EC460020002164
:1021A800294A9047FEE7884207D0521A05D003789B
:1021B80001300B700131013AF9D17047884202D0E1
:1021C80002700130FAE770470000042000F803208D
:1021D800000004200000042064480300202100209F
:1021E80090210020182302001823020090300300D9
:1021F800644803002021002020210020F83103003A
:10220800F8310300F8310300F8310300F831030016
:10221800F8310300F8310300F83103006448030083
:10222800D448030090210020902100209021002014
:10223800C7300020C8300020C8300020C830002037
:10224800C832002079220200F1A302000F484FF0A3
:102258000701884385460E4880470E48016841F4C7
:1022680070010160BFF34F8FBFF36F8FFFF740BF5F
:1022780009480A490A4A884207D0521A05D0037801
:1022880001300B700131013AF9D170470000042088
:102298008D23030088ED00E06031030088200020D2
:1022A80020210020FEE7FEE7FEE7FEE7FEE7FEE767
:1022B800FEE7FEE7FEE7FEE7FEE7FEE7FEE7FEE7EE
:1022C800FEE7FEE7FEE7FEE7FEE7FEE7FEE7FEE7DE
:1022D800FEE7FEE7FEE7FEE7FEE7FEE7FEE7FEE7CE
:1022E800FEE7FEE7FEE7FEE7FEE7FEE7FEE7FEE7BE
:1022F800FEE7FEE7FEE7FEE7FEE7FEE7FEE7FEE7AE
:10230800FEE7FEE7FEE7FEE7FEE7FEE7FEE700BFC3
:1023180008B509F0E1FF00BF08BD00B589B003901A
:1023280002910192019B002B22D0002307930A23DC
:102338000693029A079B1344019A1946002009F054
:102348007DFF0590079A059B13440793019A059B07
:10235800D31A0193059B002B05D1069B013B0693DD
:10236800069B002B03D0019B002BE2D100E000BFAD
:1023780000BF09B05DF804FB00B585B00390029179
:10238800054B00934023054A0299039800F012F880
:1023980000BF05B05DF804FB232302009021002054
:1023A80082B0019000BF02B0704782B0019000BFB8
:1023B80002B0704700B5A1B0059004910392029352
:1023C800049804F0E2FD039B1593029B16930023E7
:1023D800179300238DF8603000231993229B1A93DA
:1023E80000231F930FA91F9B0822049804F088FE5E
:1023F80008231F93119B1293109B9BB2ADF84C308E
:1024080001238DF850309DF83C3003F00303DBB214
:10241800012B32D10F9BC3F395231D939DF83C30BC
:10242800C3F3C203DBB28DF84E309DF83C30C3F3E2
:102438008003DBB2002B14BF01230023DBB28DF82D
:102448004F30BDF83C30C3F38313DBB21C931C9BA5
:102458009A0009A91F9B049804F052FE1C9B9B003C
:102468001F9A13441F9312AA09A915AB0093134688
:102478001C9A1D9800F0A6FE3BE09DF83C3003F046
:102488000303DBB2022B34D1BDF83E30C3F389130A
:102498009BB21E939DF83C30C3F3C203DBB28DF8A8
:1024A8004E309DF83C30C3F38003DBB2002B14BFE1
:1024B80001230023DBB28DF84F301E9B082B28BF69
:1024C80008231B9307A91F9B1B9A049804F018FE66
:1024D8001F9A1B9B13441F931E9A1B9BD31A1E9370
:1024E80015AB12AA07A81B9900F00EFF1E9B002B24
:1024F800E3D1049804F058FD00BF21B05DF804FB57
:1025080082B00190019B01225A7200BF02B070474D
:1025180000B583B04FF0FF330193FFF7F9FE0421B4
:10252800084800F089FD0190019B002B03DA064959
:10253800412007F081FC0348FFF7E2FF00BF03B02A
:102548005DF804FB202100200432030000B583B0AD
:1025580001900091019B1B681B680099019898479E
:1025680000BF03B05DF804FB00B583B00190019B88
:102578001B685B680198984700BF03B05DF804FBCF
:1025880082B001900B468DF80330019B9DF8032023
:102598001A7200BF02B0704782B00190019B1B7A8B
:1025A800184602B0704782B00190019B01225A720E
:1025B80000BF02B0704782B00190019B5B7A184659
:1025C80002B0704710B487B001900091019B009A47
:1025D80053E8004F44EA020043E8000191F0000F7D
:1025E800F6D1059404900391049B184607B05DF852
:1025F800044B704710B487B001900091019B009A7A
:1026080053E8004F04EA020043E8000191F0000F8C
:10261800F6D1059404900391059B184607B05DF820
:10262800044B704700B583B0019001210198FFF772
:10263800C9FF0346184603B05DF804FB00B583B034
:10264800019000210198FFF7D5FF0346184603B013
:102658005DF804FB00B587B001901F4BFF229A601C
:102668001D4B00221A601C4B00225A601A4B002294
:10267800C3F81824184B0022C3F81424164B002260
:1026880083F81C24154804F0E5FB0490049B002BF8
:1026980001D0049B1CE0124A124BD31ADB080393A7
:1026A800002305930FE0059A13465B0013449B0033
:1026B8001A460D4B13440293059B9AB2029B1A804B
:1026C800059B01330593059A039B9A42EBD300239C
:1026D800184607B05DF804FBA0220020643203000E
:1026E80038310300E030030088200020024A034B01
:1026F800D31ADB081846704738310300E03003006E
:1027080000B587B001900B468DF803309DF8033073
:10271800002B23D0FFF7EAFF04900023059317E06E
:10272800059A13465B0013449B001A460E4B13444C
:102738000393039B5B881A46019B1B689A4204D14A
:10274800019B059A1A60002309E0059B0133059354
:10275800059A049B9A42E3D3052300E00023184618
:1027680007B05DF804FB00BF8820002000B585B0E5
:1027780001900B468DF803309DF8032001AB1146FC
:102788001846FFF7BDFF0346002B07D1019BDB006E
:10279800054A13440393039B1B6800E00023184673
:1027A80005B05DF804FB00BFE030030084B0019081
:1027B8000B468DF80330019BDB00174A1344029344
:1027C8009DF80330013B032B1CD801A252F823F0DB
:1027D800E9270200F1270200F92702000328020076
:1027E80002238DF80F3011E004238DF80F300DE02F
:1027F800029B1B798DF80F3008E0029B5B798DF8FE
:102808000F3003E000238DF80F3000BF9DF80F3024
:10281800184604B0704700BFE030030000B589B027
:102828004148FFF7FFFE4148FFF7FCFE404B5B685D
:1028380007933F4B9B680493079A049B134002330A
:102848009B003B4A1344043306931BE0079B013368
:102858000793069B5B88C3F389139BB21A46069BB2
:102868001B88C3F389139BB213441A46079B13446E
:102878000793079A049B134002339B002C4A134486
:1028880004330693069B1B7803F00303DBB2002B8B
:10289800DCD00023059311E0079B5A1C0792049A89
:1028A8001340059A920069460A44214902339B0065
:1028B8000B445B681360059B01330593059B012B53
:1028C800EAD99DF80030C3F30103DBB2012B0CD029
:1028D800022B14D1BDF80230C3F389139BB2033322
:1028E8009B08079A134407930FE0BDF80030C3F321
:1028F8008313DBB21A46079B1344079305E00D497F
:1029080040F24D1007F098FA00BF0848FFF796FE0E
:102918000390039B002B02D0054A079B536000BF1E
:1029280009B05DF804FB00BFB8260020B4260020DB
:10293800A02200208832030010B586B003900291CF
:1029480001920093039B1B0CADF81630BDF816409E
:10295800FFF7CCFE03469C4204D323494FF4B270E0
:1029680007F06AFA009B5A1C089B1340BDF8162012
:102978001E4902339B000B445A60009A089B13407F
:1029880002339B00194A134404330493039B1B0925
:1029980003F00103D9B2049A137861F38203137028
:1029A800039B03F00703D9B2049A137861F3C503B4
:1029B8001370019B03F00F03D9B2049A138861F3D3
:1029C80089131380029BC3F31501049A136861F3FA
:1029D8009F231360049A1378012161F30103137094
:1029E80000BF06B010BD00BF88320300A02200203F
:1029F80000B58BB001900091019B0233089302232C
:102A0800079301238DF81B3000238DF80F300DF14B
:102A18000F03184601F0E6FC214B1A68009B1A6068
:102A28001F4B9A681E4B59681D4B1B68CB1A1344E1
:102A380001330993089A079B134405930BE0FFF7AA
:102A4800EDFE174B9A68164B5968154B1B68CB1A45
:102A5800134401330993059A099B9A42EFD8104B06
:102A68001A680F4B9B68134002339B000C4A1344AF
:102A780004330493049A137843F003031370084B48
:102A88001A68089B1344064A13609DF80F301846CD
:102A980001F0BEFC9DF81B3018460BB05DF804FB36
:102AA800A022002000B58BB00590049103920293F8
:102AB8001F4B9B68079306AB19460298FFF798FFD0
:102AC8000346002B24D0069B023309930023089366
:102AD80011E0089B9B00039A1A44099B591C099111
:102AE80007990B401268124902339B000B445A6045
:102AF800089B01330893089A029B9A42E9D3069AE5
:102B0800079B00931346029A04990598FFF714FF50
:102B1800074B93F81C34002B05D000BF00F096F843
:102B28000346002BFAD100BF0BB05DF804FB00BFD1
:102B3800A022002000B583B001900091002300225C
:102B480000990198FFF7AEFF00BF03B05DF804FBE2
:102B580000B587B0039002910192019B059305AAE5
:102B6800012302990398FFF79DFF00BF07B05DF8A6
:102B780004FB00B587B00390029101920093019B7A
:102B88000493009B059304AA022302990398FFF774
:102B980089FF00BF07B05DF804FB00B589B003905A
:102BA800029101920093019B0593009B06930A9B57
:102BB800079305AA032302990398FFF773FF00BF41
:102BC80009B05DF804FB00B589B003900291019249
:102BD8000093019B0493009B05930A9B06930B9B10
:102BE800079304AA042302990398FFF75BFF00BF29
:102BF80009B05DF804FB00B58BB003900291019217
:102C08000093019B0493009B05930C9B06930D9BDB
:102C180007930E9B08930F9B099304AA0623029916
:102C28000398FFF73FFF00BF0BB05DF804FB0000FF
:102C3800054B5A68044B1B689A420CBF01230023BA
:102C4800DBB21846704700BFA022002000B599B03B
:102C5800FFF7EEFF0346002B01D00023B2E1AB4B98
:102C68000022C3F81824BFF34F8FA84B5B68179353
:102C7800A64B9B681093179A109B134002339B0036
:102C8800A24A134404331693002315930023149384
:102C980000230F931BE0179B01331793169B5B8848
:102CA800C3F389139BB21A46169B1B88C3F3891377
:102CB8009BB213441A46179B13441793179A109BF9
:102CC800134002339B00914A134404331693169B16
:102CD8001B7803F00303DBB2002BDCD00023139333
:102CE80011E0179B5A1C1792109A1340139A9200DE
:102CF80002A90A44854902339B000B445B681360B0
:102D0800139B01331393139B012BEAD99DF80830C9
:102D180003F00303DBB2022B40F09C80BDF80A30BD
:102D2800C3F389139BB20E93BDF80A30C3F389131A
:102D38009BB2502B28BF50239BB20D930D9BC3F31E
:102D480009039AB2BDF80A3062F38F13ADF80A305E
:102D58000D9B08330C939DF80830C3F3C203DBB214
:102D68000F930C996A4804F080F81590159B002B76
:102D780000F0E080159804F008F902A9149B0822D5
:102D8800159804F0ABF9149B08331493179BDA4396
:102D9800109B134001339B000B930D9A0B9B9A4297
:102DA80042D90B9B002B08D0179A109B1340023373
:102DB8009B00564A1344043300E0564B0A930B9B7E
:102DC800002B02D00B9BDBB201E00D9BDBB28DF830
:102DD80027300B9B002B01D04E4B00E000230893BB
:102DE8000B9B002B06D00D9BDAB20B9BDBB2D31AE0
:102DF800DBB200E000238DF81F309DF82720149BDC
:102E08000A99159804F06AF99DF82730149A134422
:102E18001493089B002B16D09DF81F20149B08992B
:102E2800159804F05BF90EE0179A109B13400233D3
:102E38009B00364A134404330693149B0D9A069953
:102E4800159804F04BF90E9B03339B08179A13440B
:102E580017936FE09DF8083003F00303DBB2012BF2
:102E68005AD1BDF80830C3F38313DBB2062B28BF51
:102E78000623DAB2BDF8083062F38913ADF80830DA
:102E8800BDF80830C3F38313DBB2023305939DF812
:102E98000830C3F3C203DBB20F93059B9B001946AE
:102EA8001B4803F0E2FF1590159B002B42D01598A4
:102EB80004F06BF802A9149B0822159804F00EF987
:102EC800149B083314930023139314E0179B5A1C84
:102ED8001792109A134002339B000C4A1344191D91
:102EE800149B0422159804F0F9F8149B04331493E6
:102EF800139B01331393BDF80830C3F38313DBB27C
:102F08001A46139B9342E1D314E000BFA02200208D
:102F180064320300AC2200209DF8083003F003035C
:102F2800DBB2032B06D1294BD3F81834002B01D17F
:102F3800002347E0159B002B3ED0244BD3F81034D8
:102F48001293224BD3F81834002B1AD0159804F09A
:102F58002BF831E000238DF847301298FFF72BFB50
:102F68000346002B02D001238DF847309DF84730E7
:102F7800002B03D015991298FFF7E8FA129B5B68AB
:102F88001293129B002BE5D1159804F00DF800233D
:102F98008DF807300DF10703184601F023FA0B4BA3
:102FA800D3F81834002B02D1084A179B53609DF8B8
:102FB8000730184601F02CFAFFF73AFE034683F073
:102FC8000103DBB2184619B05DF804FBA02200200B
:102FD80000B585B00023039322E0164BD3F81034D4
:102FE800029301238DF807300EE00298FFF7D4FA18
:102FF80003461A46039B934203D100238DF80730FA
:1030080005E0029B5B680293029B002BEDD19DF8C3
:103018000730002B01D0039B07E0039B0133039388
:10302800039B092BD9DD4FF0FF33184605B05DF837
:1030380004FB00BFA022002000B585B001900B461C
:103048008DF80330FFF7C4FF0390039BB3F1FF3FF4
:1030580001D1039B1EE0039BDBB219460198FFF7E1
:103068008FFA0E4BD3F81034002B07D10B4A019B73
:10307800C2F81034019B00225A600AE0074BD3F8CB
:1030880010345A68019B5A60044BD3F81034019AE3
:103098005A60039B184605B05DF804FBA022002087
:1030A80000B583B00C4BD3F8103401930A4B0122BE
:1030B80083F81C2408E00198FFF775FA0198FFF7D8
:1030C80053FA019B5B680193019B002BF3D100BF6E
:1030D80003B05DF804FB00BFA022002010B582B049
:1030E80001900091019BDB7983F00103DBB2002B97
:1030F80028D0019B1B7A002B12D0019B9B881A4673
:10310800019B9B7919461046FFF750FB03461A4668
:103118000E4B53F822301A460D49009802F090FFE2
:10312800019B9B791A460B4B53F82240019B9B88C5
:1031380000211846FFF71AFB034622460649009865
:1031480002F07EFF00BF02B010BD00BF402100208A
:10315800483303002C2100204C33030000B585B010
:103168000390029113468DF80730039BDB7983F0B7
:103178000103DBB2002B0FD0039B1B7A002B06D078
:103188000D4B1B681A460D49029802F059FF0C496D
:10319800029802F055FF07E09DF80730002B03D096
:1031A8000749029802F04CFF029802F027FF00BF7F
:1031B80005B05DF804FB00BF402100204833030040
:1031C8005833030030B58BB00790069105920493ED
:1031D8000E9B1B7B8DF827300E9B00221A730E99CD
:1031E8000498FFF77BFF059B062B7FD801A252F8B6
:1031F80023F000BF193202002332020033320200EA
:1032080047320200653202008D320200BD320200F0
:1032180007990E9802F014FF69E0069B1B681A468E
:1032280007990E9802F00CFF61E0069B1A68069B4E
:1032380004331B6807990E9802F002FF57E0069BBB
:103248001A68069B04331968069B08331B680093A9
:103258000B4607990E9802F0F3FE48E0069B1968A2
:10326800069B04331868069B08331B68069A0C32C1
:1032780012680192009303460A4607990E9802F0D5
:10328800DFFE34E0069B1868069B04331C68069B27
:1032980008331B68069A0C321268069910310968BF
:1032A8000291019200932346024607990E9802F074
:1032B800C7FE1CE0069B1C68069B04331D68069B22
:1032C80008331B68069A0C3212680699103109688F
:1032D80006981430006803900291019200932B46DF
:1032E800224607990E9802F0ABFE00E000BF0022CC
:1032F8000E990498FFF732FF0E9B9DF827201A734A
:1033080000BF0BB030BD00BF00B587B0039002917D
:1033180001920093029B082B5CD8009B1B7B8DF8C5
:103328001330009B00221A7300990198FFF7D6FE0C
:103338000023059314E0059A029B9A4209D2039A46
:10334800059B13441B781A462449009802F078FE1E
:1033580003E02349009802F073FE059B01330593AF
:10336800059B072BE7D91F49009802F069FE002347
:10337800059322E0059A029B9A4217D2039A059B6D
:1033880013441B788DF812309DF8123018460FF050
:103398008DFD0346002B02D09DF8123000E02E234D
:1033A8001A461149009802F04BFE03E00F490098B5
:1033B80002F046FE059B01330593059B072BD9D9DF
:1033C800012200990198FFF7C9FE009B9DF8132080
:1033D8001A7300E000BF07B05DF804FB5C3303001C
:1033E80064330300683303006C3303007033030055
:1033F80000B589B0019000238DF81F3051E02E4BA5
:103408001A689DF81F30DB0013440693069B1B784F
:103418001A46012393400593284B1A68059B1340CD
:10342800002B39D0059BDA43244B1B681340234AF1
:103438001360069B1B78184605F0AAF803468DF81A
:103448001330069B1B781A46012393401A461C4BDF
:103458001B6813409DF81320069909788A40934207
:103468001AD19DF81330069A5278012A0CBF01220E
:103478000022D2B293420CBF01230023DBB2039394
:10348800069B5B68002B07D0069B5B68069A127840
:103498000399C9B2104698479DF81F3001338DF83B
:1034A8001F30084B1B789DF81F209A42A7D300BFF6
:1034B80009B05DF804FB00BFC0260020F0260020FC
:1034C800EC260020C426002000B585B001900B46EC
:1034D8008DF803300122019B02FA03F303931E4B7C
:1034E800184600F0EBFE0290029B002B30D11B4BDC
:1034F8001A68039B1340002B22D1019805F048F865
:103508000346002B06D0164B1A68039B1343144A34
:10351800136006E0039BDA43114B1B681340104A03
:1035280013600E4B1A68039B13430C4A13600A4836
:103538000C4B1B680022194600F08EFE029008E032
:10354800039BDA43054B1B681340044A136000E0F1
:1035580000BF05B05DF804FBCC260020F026002053
:10356800EC260020C826002000B589B003900B4641
:1035780001928DF80B30019B042B01D8072351E0F1
:1035880004F00EFF034683F00103DBB2002B07D0E3
:1035980004F0BEFE0790079B002B01D0079B41E07B
:1035A800224A039B1360224A9DF80B301370214A6C
:1035B800019B1360204B00221A60204B00221A60E6
:1035C80023E09DF80B30DB00039A13440693032392
:1035D8008DF8143000238DF8153000238DF816303F
:1035E80000238DF81730069B9B788DF81530069BC5
:1035F8001B78184605AB124A194604F0DDFE079001
:10360800079B002B01D0079B0CE09DF80B305A1E3E
:103618008DF80B20002BD4D10A4A00210A4800F06B
:10362800EBFD0346184609B05DF804FBC0260020F0
:10363800C4260020C8260020EC260020F026002002
:10364800D1340200F93302007433030000B583B0AB
:10365800114B1B68002B03D11049B62006F0ECFB78
:10366800002301930CE00C4B1A68019BDB00134408
:103678001B780121184604F003FF019B01330193D5
:10368800074B1B781A46019B9342ECD3002318463C
:1036980003B05DF804FB00BFC026002078330300A8
:1036A800C426002000B589B0039002910192029BC4
:1036B8009BB2ADF81430019B0693039B079305ABAF
:1036C8001A46002144F2010006F08EFB00BF09B043
:1036D8005DF804FB82B003468DF807309DF807308B
:1036E80003F01F0205499DF907305B09012000FA24
:1036F80002F241F8232000BF02B0704700E100E069
:1037080082B003468DF807309DF8073003F01F029A
:1037180006499DF907305B09012000FA02F22033BF
:1037280041F8232000BF02B0704700BF00E100E06D
:1037380082B003468DF807309DF8073003F01F026A
:1037480006499DF907305B09012000FA02F240336F
:1037580041F8232000BF02B0704700BF00E100E03D
:1037680082B003468DF807309DF8073003F01F023A
:1037780006499DF907305B09012000FA02F260331F
:1037880041F8232000BF02B0704700BF00E100E00D
:1037980082B0034600918DF807309DF90730002B61
:1037A8000CDA009BDAB20C499DF8073003F00F03DE
:1037B800043B5201D2B20B441A7609E0009BDAB2FC
:1037C80006499DF907305201D2B20B4483F8002311
:1037D80000BF02B0704700BF00ED00E000E100E06C
:1037E80084B00190244B0393019B002B40D0234BC2
:1037F8001A680399019B00BF00BF00BF00BF00BF4C
:1038080000BF00BF00BF8A422FD000BF00BF00BF6B
:1038180000BF00BF00BF00BF00BF00BF00BF00BFA8
:1038280000BF00BF00BF00BF00BF00BF00BF00BF98
:1038380000BF00BF00BF00BF00BF00BF00BF00BF88
:1038480000BF00BF00BF00BF00BF00BF00BF00BF78
:1038580000BF00BF00BF00BF00BF00BF00BF00BF68
:1038680000BF00BF00BF00BF00BF013BC3D1019331
:1038780000BF04B0704700BF0024F4007821002086
:1038880000B583B00190064A019BC2F808350721AC
:103898001120FFF77DFF00BF03B05DF804FB00BFF8
:1038A8000010014008B50D4B4FF48032C3F8442393
:1038B8000A4B4FF48032C3F804231120FFF750FF5E
:1038C8001120FFF707FF054B01221A602F20FFF791
:1038D80087FF034B01221A7000BF08BD001001408A
:1038E8001228002008B51120FFF70AFF0E4B4FF4ED
:1038F8008032C3F848230C4B4FF48032C3F80823B6
:10390800094B01225A602F20FFF76AFF064B01225C
:103918009A60064B00221A602F20FFF761FF044BC4
:1039280000221A7000BF08BD0010014004280020C2
:1039380012280020024BD3F804351846704700BF00
:103948000010014082B001900091019A009BD31AA7
:1039580023F07F43184602B07047000082B0019000
:10396800034A019BC2F8403500BF02B0704700BF50
:103978000010014086B00190284B1B68002B03D132
:10398800264A019B136045E0019B1A68234B1B687C
:103998001B689A4210D8214B1B681968019B1A684A
:1039A8001E4B1B688A1A1A601C4B1A68019BDA6145
:1039B8001A4A019B13602DE0019B1B680393174B68
:1039C8001B680593154B1B68049309E0049B1B684F
:1039D800039AD31A0393049B0593049BDB6904930E
:1039E800049B002B04D0049B1B68039A9A42EDD8D1
:1039F800049B002B05D0049B1A68039BD21A049BD6
:103A08001A60019B039A1A60019B049ADA61059B6C
:103A1800019ADA6100BF06B0704700BF0028002095
:103A280000B587B001902A4B1B680393284B1B688D
:103A38000593059B049308E0049A019B9A4208D0D9
:103A4800049B0593049BDB690493049B002BF3D12F
:103A580000E000BF049B002B01D1002333E0059A4E
:103A6800049B9A4214D11A4B1B68DB69184A1360ED
:103A7800174B1B68002B0BD1164B01229A60164B73
:103A880000221A60154B01221A702F20FFF7A8FE9A
:103A9800049B1B680293049BDA69059BDA61059B0A
:103AA800DB690493049B002B05D0049B1A68029BD6
:103AB8001A44049B1A60064B1B68039A9A4214BF67
:103AC80001230023DBB2184607B05DF804FB00BFF2
:103AD800002800200010014004280020132800209E
:103AE80008B51120FFF724FE00BF08BD08B5142053
:103AF800FFF71EFE00BF08BD00B583B00190019B13
:103B08005B69019A92691046984700BF03B05DF857
:103B180004FB000000B585B02B4B1B68002B4ED072
:103B280000230193FFF706FF0246284B1B6819463E
:103B38001046FFF707FF0290234B1B6803931DE015
:103B4800039B1B68029A9A421CD3039B1B68029A28
:103B5800D31A0293039B1B68019A13440193039B96
:103B68000093039BDB690393009B1B7C002B05D010
:103B7800009B00221A740098FFF7BEFF039B002BDE
:103B8800DED100E000BF124B1A78124B1B789A4224
:103B98000CD1104B1B780133DAB20E4B1A700D4B57
:103BA8001B78022B02D10B4B00221A70094B1B7891
:103BB8001946094A019B42F82130FFF797FF00BFD9
:103BC80005B05DF804FB00BF002800200428002091
:103BD80010280020112800200828002082B0019019
:103BE800184B1A78184B1B789A4223D0154B1B7820
:103BF8000133DAB2134B1A70124B1B78022B02D125
:103C0800104B00221A700F4B1B781A460F4B53F8B3
:103C18002220019B1A60019B1A680D4B1B681344F4
:103C28000B4A13600A4B1B6823F07F43084A136052
:103C3800012303E0019B00221A600023184602B00A
:103C4800704700BF102800201128002008280020F5
:103C58000428002088B00390029101920023079362
:103C680038E0204B1B680693069B1B68039A9A4210
:103C780006D2069B1A68039BD21A069B1A602DE08F
:103C8800069B1B68039AD31A0393069B1B68079A23
:103C980013440793069B00221A60124B1B68059376
:103CA800069BDB690F4A1360069BDB68002B11D06B
:103CB800029A079B134423F07F42069B5A60069B97
:103CC800DA68069B9A60019B1A68069BDA61019B79
:103CD800059A1A60034B1B68002BC2D100BF08B0BD
:103CE800704700BF0028002000B589B0019000236C
:103CF8008DF81F30664B1B680593AAE0019B002BCB
:103D080005D0019B0693069BDB69019361E0614B3B
:103D18001B781A4613465B001344DB005D4A1344C4
:103D2800043304935B4B1B780133DAB2594B1A7096
:103D3800584B1A78574B9B789A4202D1554B002220
:103D48001A70049B5B680693049B1B78022B04D0B3
:103D5800032B1BD0012B1FD01DE0049B5B6818466A
:103D6800FFF75EFE0346002B02D001238DF81F30BB
:103D7800069B00221A746CE0454B1B680393039B57
:103D880000221A74039BDB69414A1360404B1B688D
:103D9800002BF1D15DE05CE000BF069B1B7C002B93
:103DA80000D056E0049B9A68069B5A60049BDA6828
:103DB800069B9A60049B1A69069BDA60049B5A6901
:103DC800069B9A61344B1B78002B02D0069B00227D
:103DD8005A60069B5A68314B1B68D31A23F07F43FD
:103DE8002F4A93420ED8069B5A682C4B1B681946DB
:103DF8001046FFF7A7FD0246069B9B681A44069BE0
:103E08001A6017E0254B1A68069B5B68194610462E
:103E1800FFF798FD0290069B9B68029A9A4206D289
:103E2800069B9A68029BD21A069B1A6002E0069BC0
:103E380000221A60069B00225A60069B00229A60A4
:103E4800069B01221A74069B0022DA610698FFF786
:103E580091FD019B002B7FF451AF0E4B1A780D4B4F
:103E68005B789A427FF44AAF9DF81F30002B04D14B
:103E7800074B1B68059A9A4201D0012300E00023F2
:103E880003F00103DBB2184609B05DF804FB00BF7C
:103E980000280020F42600201328002004280020F1
:103EA800FEFF7F0010B588B00190274B1B68002BE0
:103EB80044D0254B1B681B680793FFF73BFD069012
:103EC800224B1B68059305990698FFF73BFD0346AF
:103ED800033304931E4B1B7883F00103DBB2002BE2
:103EE80001D0FFF7DFFC049A079B934238BF1346C3
:103EF800059A13440593059B23F07F430593059882
:103F0800FFF72CFDFFF716FD039006990398FFF7BE
:103F180019FD0346DC1C06990598FFF713FD0346B7
:103F28009C420DD9FFF706FD03461846FFF716FD1C
:103F38002F20FFF755FCFFF7D3FD01E0FFF7D2FC78
:103F480000BF08B010BD00BF0028002004280020D2
:103F58001228002000B587B00023019300238DF8B4
:103F68001730194B1B680493184B1B6803936B4657
:103F78001846FFF733FE03468DF80B309DF80B30DB
:103F8800002B08D0009B01AA04991846FFF762FE8F
:103F980001238DF81730019B1846FFF7A5FE03464D
:103FA800002B02D001238DF817309DF81730002B15
:103FB80002D00398FFF776FF054B00221A7000BF66
:103FC80007B05DF804FB00BF04280020002800208B
:103FD8001328002082B003468DF80730034A9DF865
:103FE8000730537000BF02B0704700BFF4260020AE
:103FF80084B00190144B5B7801338DF80F30124B6D
:104008009B789DF80F209A4202D100238DF80F303B
:104018000D4B1B789DF80F209A4201D100230FE029
:10402800019B9DF80F201A70074B5B781A461346C0
:104038005B001344DB00044A134404330293029BDD
:10404800184604B0704700BFF426002000B589B0B8
:1040580003900291019200930023079300238DF8A7
:1040680016300DF11603184600F0BCF90DF11703D0
:104078001846FFF7BDFF0690069B002B02D10423CC
:10408800079318E0069B01221A70069B039A5A6050
:10409800FFF750FC0246069B9A60069B029ADA607C
:1040A800069B019A1A61069B009A5A619DF817307F
:1040B8001846FFF78FFF9DF81630184600F0A8F94C
:1040C800079B002B01D1FFF711FD079B184609B08C
:1040D8005DF804FB00B587B001900B468DF80330FE
:1040E8000023059300238DF80E300DF10E031846BA
:1040F80000F078F90DF10F031846FFF779FF0490E7
:10410800049B002B02D1042305930BE0049B9DF82C
:1041180003201A70049B019A5A609DF80F301846C4
:10412800FFF758FF9DF80E30184600F071F9059B0F
:10413800002B01D1FFF7DAFC059B184607B05DF8A4
:1041480004FB000008B50E4B0022C3F840210C4BBD
:104158000022C3F844210A4B0022C3F84821084B27
:104168000022C3F84C21064B0022C3F80021044B5F
:104178000022C3F80421FFF7CDFC00BF08BD00BF33
:104188000010014008B5FFF7E5FE00BF08BD0000BC
:1041980008B5FFF7A7FB134B00221A70114B00223A
:1041A8005A70104B0B229A700F4B00221A600F4B5B
:1041B80000221A700E4B00221A701420FFF7D0FA52
:1041C80007211420FFF7E4FA1420FFF783FA0020F0
:1041D800FFF756FBFFF7AEFB0246064B1A600023BB
:1041E800184608BDF42600200028002010280020CA
:1041F800112800200428002086B003900B46019265
:104208008DF80B30134B9B78002B01D108231EE04F
:10421800019B002B01D1072319E0039B002B01D13F
:10422800072314E0039B1B681B7C002B01D0082389
:104238000DE0039B1B680593059B00221A74059BE0
:104248009DF80B205A74059B019A5A610023184661
:1042580006B07047F426002000B587B0039002919D
:104268000192039B0593144B9B78002B01D10823E3
:104278001EE0039B002B01D1082319E0029B042BAD
:1042880001D8072314E0059B5B69002B01D10823A3
:104298000EE0059B5B7C012B01D1029B00E0002313
:1042A8000493019B049A02990598FFF7CFFE0346F1
:1042B800184607B05DF804FBF426002000B585B069
:1042C8000190019B03930D4B9B78002B01D1082390
:1042D80010E0019B002B03D0039B5B69002B01D1ED
:1042E800082307E0039B00221A7402210398FFF7B2
:1042F800F1FE0346184605B05DF804FBF4260020DD
:1043080082B0EFF310830093009B019372B6019B78
:10431800184602B0704762B600BF704700B585B056
:104328000190FFF7EDFF0390164B9B68002B1BD104
:10433800144B01229A60144BD3F88020134B13407E
:10434800104A1360104B114AC3F880200E4BD3F863
:1043580084300C4A53600C4B4FF0FF32C3F8842072
:10436800019B00221A7002E0019B01221A70039B34
:10437800002B01D1FFF7CFFF0023184605B05DF8E9
:1043880004FB00BF1428002000E100E0FC06FFBD8C
:1043980000B585B003468DF80730104B9B68002B9D
:1043A80016D09DF80730002B12D1FFF7A9FF039014
:1043B8000B4A0A4B1B681360094A084B5B68536039
:1043C800064B00229A60039B002B01D1FFF7A3FF45
:1043D8000023184605B05DF804FB00BF1428002030
:1043E80000E100E000B583B0019000F02BF803462F
:1043F800012B03D00549432005F01EFD0198FFF766
:104408008DFF00BF03B05DF804FB00BFBC330300A1
:1044180000B583B003468DF8073000F013F8034663
:10442800012B03D00649512005F006FD9DF8073001
:104438001846FFF7ADFF00BF03B05DF804FB00BFEF
:10444800BC33030084B0EFF305830193019BC3F3EE
:1044580008030393039B002B0DD1EFF31483009300
:10446800009B0293029B03F00103002B0CBF012366
:104478000023DBB200E00123184604B0704782B085
:104488000190019B03F00303002B0CBF01230023C1
:10449800DBB2184602B0704710B487B001900091A3
:1044A800019B009A53E8004F04EB020043E8000127
:1044B80091F0000FF6D1059404900391059B1846DE
:1044C80007B05DF8044B704710B487B001900091B5
:1044D800019B009A53E8004F04EB020043E80001F7
:1044E80091F0000FF6D1059404900391049B1846AF
:1044F80007B05DF8044B704710B487B00190009185
:10450800019B009A53E8004FA4EB020043E8000126
:1045180091F0000FF6D1059404900391049B18467E
:1045280007B05DF8044B704700B585B001900023D3
:1045380003930EE00A4A039B52F82330002B05D060
:10454800074A039B52F8233001989847039B01338D
:104558000393039B032BEDD900BF05B05DF804FB63
:104568002C28002082B001900091019B1B78013B10
:10457800052B61D801A252F823F000BF9D45020027
:10458800A5450200CB450200FD4502001D4602007C
:1045980039460200009B00221A704EE0009B01225F
:1045A8001A70019B1A89009B9A81019B9A88009B2B
:1045B800DA81019BDA68009B9A60009B00221A74DA
:1045C8003BE0009B02221A70019B1A89009B9A818A
:1045D800019B9A88009BDA81019BDA68009B9A60AC
:1045E800019B9B7D062B0CBF01230023DAB2009BA5
:1045F8001A7422E0009B03221A70019BDA88009B40
:104608009A81019B1A89009BDA81019BDA68009BD9
:104618009A6012E0009B04221A70019BDA88009BC2
:104628009A81009B0022DA81009B00229A6004E0B4
:10463800009B05221A7000E000BF00BF02B070475F
:1046480084B001900091019B0393039A009B9A42C6
:1046580006D2039B1B68B3F1FF3F01D0012300E0A2
:10466800002303F00103DBB2184604B0704782B0A0
:104678000190019B5B8803339B00019A1344184601
:1046880002B0704700B583B0019000910198FFF720
:10469800EEFF0246009B934201D202230CE0019BED
:1046A8009B884FF6FF72934203D0019B1B88002B17
:1046B80001D1012300E00023184603B05DF804FB94
:1046C80000B583B00190019B002B13D00D4BDB6824
:1046D8001A46019B93420DD30A4B1B691A46019B4C
:1046E800934207D80198FFF7CAFE0346002B01D072
:1046F800012300E0002303F00103DBB2184603B0F6
:104708005DF804FB0C21002082B003460A46ADF890
:1047180006301346ADF80430BDF806201349134699
:104728009B0013449B000B4408331A88BDF80430DF
:104738001344ADF80430BDF806200C4913469B001D
:1047480013449B000B440A331A88BDF80430134401
:10475800ADF80430BDF8043040F2FF32934294BF04
:1047680001230023DBB2184602B07047502800200E
:1047780084B0019000910A2303930023ADF80A3016
:1047880027E0BDF80A20174913469B0013449B00F5
:104798000B4404331B68009A9A4215D9BDF80A20C5
:1047A800104913469B0013449B000B4404331B68B9
:1047B80003F58053009A9A4206D200230393019B83
:1047C800BDF80A201A8008E0BDF80A300133ADF8B8
:1047D8000A30BDF80A30012BD3D9039B184604B020
:1047E800704700BF5028002082B001900B46ADF8FA
:1047F8000230019B1A89BDF8023013449BB203337F
:104808009AB2019B1A81019B5A89BDF80230D31ACA
:104818009BB2033B9AB2019B5A8100BF02B070471A
:1048280000B583B0074B1B68194600230093082383
:10483800054A064802F002F80346184603B05DF838
:1048480004FB00BF78280020443403000C2100201A
:1048580000B585B003900399002300930823044A08
:10486800044801F0EBFF0346184605B05DF804FB69
:104878004C3403000C21002000B585B0034600919C
:10488800ADF8063000238DF80F30BDF8063003333D
:10489800ADF80A30BDF80A3040F2FD32934201D932
:1048A80009234AE00023ADF80C303BE0BDF80C20AA
:1048B800244913469B0013449B000B441B78002B90
:1048C8002BD1BDF80A20BDF80C3011461846FFF769
:1048D8001BFF0346002B20D001238DF80F30009BCF
:1048E800BDF80C201A80BDF80C20164913469B0011
:1048F80013449B000B440A331988BDF80C20BDF8FB
:104908000A300B4498B20F4913469B0013449B008E
:104918000B440A3302461A8008E0BDF80C30013314
:10492800ADF80C30BDF80C30012BBFD99DF80F3015
:10493800002B01D0002300E00723184605B05DF8DE
:1049480004FB00BF5028002082B003460A46ADF899
:1049580006301346ADF80430BDF804200D4913465F
:104968009B0013449B000B440A331A88BDF8063099
:10497800D31A9BB2BDF80420033B98B205491346ED
:104988009B0013449B000B440A3302461A8000BF65
:1049980002B070475028002008B501210248FFF7EF
:1049A80093FD0346184608BD3C28002000B585B095
:1049B80003460091ADF80630BDF80620224913469B
:1049C8009B0013449B000B4404331B6803F580537E
:1049D8000293009B1B680393039B002B04D003984E
:1049E800FFF745FE039023E0BDF80620164913465D
:1049F8009B0013449B000B4404331B680833039348
:104A080016E002990398FFF73DFE0346012B08D0F4
:104A1800022B0BD0002B0BD1009B039A1A600123A9
:104A28000EE00398FFF723FE039001E0002307E060
:104A380002990398FFF704FE0346002BE1D10023F7
:104A4800184605B05DF804FB5028002000B585B075
:104A580001900091019B5B681846FFF731FE034601
:104A6800002B19D0019B1A89244B1B899A4213D118
:104A7800019B1A68019B5B689B689A420CD1019B59
:104A88005B6819460098FFF773FE0346002B0CBFBE
:104A980001230023DBB22CE0009B00221A8023E0D4
:104AA8000023029310E0029B0393039B9A68019BE7
:104AB8001B689A4208D1029A019B5A600F4B1A89C7
:104AC800019B1A81012314E0009B1B8802AA11464E
:104AD8001846FFF76BFF0346002BE4D1009B1B88A9
:104AE80001339AB2009B1A80009B1B88012BD7D9EF
:104AF8000023184605B05DF804FB00BF802800209D
:104B080000B587B00390029101920093304B1B7857
:104B1800DBB283F00103DBB2002B01D0022353E0A8
:104B2800019B002B02D0009B002B48D105234BE0B2
:104B3800009B9B881946274A0B469B000B449B0009
:104B480013441B78002B33D124E0009B1B6805938A
:104B5800039B002B06D0059B9A88039B1B889A42CF
:104B680000D017E0029B002B06D0059B1A88029BF9
:104B78001B889A4200D00DE0059B9A68019B1A6039
:104B8800009B1A68019B5A60134B1A89019B1A8172
:104B9800002319E0009B9B88009A11461846FFF7EE
:104BA80005FF0346002BD0D1009B00221A6000E0CD
:104BB80000BF009B9B8801339AB2009B9A80009BA0
:104BC8009B88012BB4D90A23184607B05DF804FB6B
:104BD80020280020502800208028002000B585B01B
:104BE8000190084B0199184601F0A8F803901C227F
:104BF800002103980EF0C3F9039B184605B05DF831
:104C080004FB00BF4028002000B583B00190044B8E
:104C18000199184601F0A9F800BF03B05DF804FB3C
:104C28004028002000B583B00190054B0199184633
:104C380001F0AFF80346184603B05DF804FB00BF67
:104C48004028002000B583B00190044B0199184614
:104C580001F0B6F800BF03B05DF804FB402800205F
:104C680008B50A4B1B68002B04D1094940F2712092
:104C780005F0E2F801210548FFF73EFC0346002B4A
:104C880014BF01230023DBB2184608BD28280020E2
:104C98000834030000B587B003900291039B0222F9
:104CA8009A750299039B1A1D002300930423074851
:104CB80001F0C4FD0590059B002B01D1002300E005
:104CC8000E23184607B05DF804FB00BF0C21002036
:104CD80000B587B003900291039B1B69002B01D09C
:104CE800032200E00122039B9A75029B08331946B0
:104CF800039B03F10C02002300930423064801F0F0
:104D08009DFD0590059B002B01D1002300E00E239B
:104D1800184607B05DF804FB0C21002000B587B0E9
:104D280003900291039B1B78032B01D1052200E01D
:104D38000622039B9A75029B04331946039B03F1D1
:104D48000802002300930423064801F077FD05902C
:104D5800059B002B01D1002300E00E23184607B065
:104D68005DF804FB0C21002000B587B003900B46CA
:104D7800ADF80A3003990023009304230C4A0D4828
:104D880001F05CFD0590059B002B01D00E230BE084
:104D9800BDF80A20084913469B0013449B000B44A6
:104DA800103301221A700023184607B05DF804FB7F
:104DB800543403000C2100205028002000B589B08D
:104DC800019002AB00221A605A609A60019BDB686E
:104DD80002930DF1160202AB11461846FFF736FE94
:104DE8000346002B12D0039B0693069B9A88019BCF
:104DF800DA80069B1A88019B1A81039BBDF816204E
:104E080011461846FFF7B0FF079001E00A23079301
:104E1800079B184609B05DF804FB000000B587B091
:104E28000190019B981D02AA0D4B0021FFF768FE17
:104E38000590059B002B08D1039A094B9B881946BE
:104E48001046FFF791FF059004E00822002104486E
:104E58000EF095F8059B184607B05DF804FB00BFF7
:104E68009028002000B587B003900291039B01228F
:104E78009A75029B0C331846039B1A69039BDB88BF
:104E88009900002300930B460146074801F0D6FC21
:104E98000590059B002B01D1002300E00E23184646
:104EA80007B05DF804FB00BF0C21002082B0184B4E
:104EB8001B8901339AB2164B1A81154B00225A806E
:104EC800134B00221A730023ADF8063018E0BDF822
:104ED8000620104913469B0013449B000B441A7884
:104EE800BDF80630002A0CBF01220022D1B2084AC0
:104EF80013440A469A72BDF806300133ADF80630FD
:104F0800BDF80630012BE2D900BF02B0704700BFE0
:104F1800802800205028002084B0019000238DF8BC
:104F28000F300023ADF80C3031E0BDF80C301C4ACE
:104F380013449B7A002B25D0BDF80C30184A134433
:104F480000229A72BDF80C20164913469B001344A0
:104F58009B000B440C331B68002B13D1BDF80C20AD
:104F6800104913469B0013449B000B4410331B78D5
:104F7800002B07D0019BBDF80C201A8001238DF867
:104F88000F3008E0BDF80C300133ADF80C30BDF837
:104F98000C30012BC9D99DF80F30184604B0704762
:104FA800802800205028002008B5084B05221A70D8
:104FB800074B02229A80064B1B68194600230122E0
:104FC800044801F08DFC0346184608BD80280020DF
:104FD800782800200C21002000B583B0164B5B8890
:104FE800ADF80230BDF80220144913469B00134463
:104FF8009B000B440C331B68002B14D10E4B04226E
:105008001A70BDF802200D4913469B0013449B00FB
:105018000B4404331B68194600230122084801F099
:105028005FFC019002E0FFF7BFFF0190019B18466B
:1050380003B05DF804FB00BF802800205028002042
:105048000C21002000B587B0114B5B680593114B0C
:105058001A68104B9B889B0013440493059B5B883C
:105068000333ADF80E300A4B03221A700499084B2B
:105078005A68BDF80E30980000230093034606488E
:1050880001F0DCFB0346184607B05DF804FB00BFDF
:1050980080280020782800200C21002000B583B04B
:1050A8000A4B5B880A491846FFF780FC0346002B29
:1050B80003D0FFF7C7FF019002E0FFF78DFF0190D3
:1050C800019B184603B05DF804FB00BF8028002050
:1050D8008428002008B50A4B06221A70084B5B8802
:1050E8001946084A0B469B000B449B0013440433A3
:1050F8001B681846FFF7ACFB0346184608BD00BFFF
:10510800802800205028002008B5054B07221A7077
:10511800034B00225A60FFF783FB0346184608BD7D
:105128008028002008B50D48FFF7F6FE034683F0F7
:105138000103DBB2002B0BD0094B00221A70084B7D
:1051480000225A80064B00225A6041F61D5302E0A5
:10515800FFF7A4FF0346184608BD00BF82280020B9
:105168008028002082B0094B5B680193019B5B8813
:105178000333ADF80230064B9A88BDF80230134469
:105188009AB2034B9A8000BF02B070478028002073
:105198007828002082B0184B1B680193174B5B8856
:1051A8001946174A0B469B000B449B0013440433D3
:1051B8001B68114A1360114B5B881946104A0B464D
:1051C8009B000B449B0013440433019A1A600B4B59
:1051D8005B881946084B9888094A0B469B000B4484
:1051E8009B001344083302461A80034B02229A801C
:1051F80000BF02B0704700BF782800208028002038
:105208005028002008B51A4B1B78072B2CD801A270
:1052180052F823F03D52020071520200715202000E
:1052280049520200555202006152020061520200C6
:1052380069520200FFF73AFE0D4B01221A7014E082
:10524800FFF790FF0A4B02221A700EE0FFF7A2FF49
:10525800074B06221A7008E0054B07221A7004E073
:10526800034B01221A7000E000BF00BF08BD00BF59
:105278008028002000B587B0019000910F23059386
:10528800019B002B04D0624B00225A600123BBE033
:10529800009B1B79032B00F2AB8001A252F823F08C
:1052A800B9520200C752020055530200755302005A
:1052B800009B01221A71FFF7B3FA05909BE00023C7
:1052C8008DF813300023ADF810302BE0BDF8102016
:1052D800504913469B0013449B000B441B78022B38
:1052E8001BD1BDF810204B4913469B0013449B006B
:1052F8000B4400221A7001238DF81330BDF81020DA
:10530800444913469B0013449B000B4404331B6819
:105318001846FFF79DFA059008E0BDF810300133F4
:10532800ADF81030BDF81030012BCFD99DF81330EF
:1053380083F00103DBB2002B5CD0354B01221A70DD
:10534800334B00225A6041F61D535DE0009B00225A
:105358001A71314B02229A802F4B1B681946002381
:1053680001222E4801F0BCFA059044E0009B00227F
:105378001A71294B1B681846FFF76AFA0590284BE3
:105388005B88ADF80E30244B1B680293BDF80E20E5
:10539800204913469B0013449B000B4404331B68AD
:1053A8001D4A1360BDF80E201A4913469B0013448A
:1053B8009B000B440433029A1A60BDF80E20164B6A
:1053C8009888144913469B0013449B000B440833E8
:1053D80002461A80104B02229A80BDF80E200D4911
:1053E80013469B0013449B000B4400221A7002E0F2
:1053F80000BF00E000BF059B002B04D0044B002237
:105408005A600E2300E00023184607B05DF804FB3D
:105418002028002050280020782800200C21002077
:105428008028002000B587B001900091009B9B8ADE
:105438001A4613469B0013449B003C4A13440493AA
:10544800019B002B07D0009BDB8819460498FFF7C7
:10545800CBF9012365E0049B5A68049B1B899B00D8
:1054680013440393009B9B7D062B4DD801A252F851
:1054780023F000BFBF540200E3540200CB540200E3
:10548800D754020099540200EF5402000955020053
:10549800274B00225A60009B9B69254A13602549C7
:1054A8002348FFF7D3FA034683F00103DBB2002B4E
:1054B80001D00A2335E003990098FFF7EBFB05902C
:1054C80025E003990098FFF703FC05901FE0039976
:1054D8000098FFF7C7FC059019E003990098FFF7BB
:1054E8001DFC059013E0009B06229A75104B5A6824
:1054F800104B1B8819461046FFF736FC059006E04E
:1055080041F61D53059302E00F23059300BF059B49
:10551800002B05D0009BDB8819460498FFF764F937
:10552800059B184607B05DF804FB00BF5028002013
:1055380098280020A428002000B585B0019000918B
:10554800019B002B01D0012323E0009B1B79012B39
:105558000BD0022B14D0002B16D1009B02221A71FB
:105568000098FFF72BFC039012E00098FFF756FC19
:105578000390039B0A2B0AD141F61D53039306E0BF
:1055880041F61D53039303E00F23039300E000BF8C
:10559800039B184605B05DF804FB000000B585B014
:1055A8000190019B002B01D001233BE01F4B1B7B8B
:1055B800002B03D01D4B00221A7301E0FFF722FED7
:1055C8001A4B1B78013B062B28D801A252F823F06E
:1055D800F5550200FD550200055602000D56020061
:1055E80025560200155602001D560200FFF79AFDC7
:1055F800039016E0FFF752FD039012E0FFF722FD3B
:1056080003900EE0FFF7E8FC03900AE0FFF762FD65
:10561800039006E0FFF778FD039002E00F23039361
:1056280000BF039B184605B05DF804FB80280020E6
:1056380000B589B001903F4B1B68002B05D13E484F
:10564800FFF7F0FA02463B4B1A603A4B1B68002BF7
:1056580004D13A4940F2795004F0EEFB354B1B680F
:105668001B78013B052B2CD801A252F823F000BF70
:1056780091560200A1560200A1560200B15602003E
:10568800B1560200C15602002A4B1B681946019800
:10569800FFF7F0FD019017E0264B1B6819460198AB
:1056A800FFF7C0FE01900FE0224B1B6819460198D6
:1056B800FFF742FF019007E00198FFF76FFF0190A5
:1056C80002E00F23019300BF019B002B2BD003ABFB
:1056D8001422002118460DF052FC019B41F61D5280
:1056E800934204D1002304930023019301E0019B1A
:1056F8000493104B1B6803AA11461846FEF732FFA5
:1057080003AB1846FEF710FF0A4B00221A600A483E
:10571800FFF798FAFFF7A4FA034683F00103DBB218
:10572800002B02D187E700BF00E000BF00BF09B02F
:105738005DF804FBA8280020AC28002008340300EA
:1057480008B501210548FEF7A7FE0346002B02D144
:105758000020FFF76DFF00BF08BD00BF282800200C
:1057680000B583B00190019B5B681846FFF760FFA6
:1057780000BF03B05DF804FB00B58BB00390029145
:1057880001928DF803300023ADF824300023ADF8E2
:105798002630514B1B78DBB283F00103DBB2002BC0
:1057A80001D0022393E0029B002B01D105238EE058
:1057B800029B1B884FF6FF72934203D0029B5B88C3
:1057C800002B01D1042382E0029B5B681846FEF798
:1057D80056FE034683F00103DBB2002B01D00323FE
:1057E80075E0019B002B11D1029B9B68ADF8263018
:1057F8000DF11A02BDF8263011461846FFF73CF89D
:105808000890089B002B09D0089B60E0019B1B882F
:10581800ADF81A30019B5B88ADF8263005AB184609
:10582800FFF7DCF90790079B002B09D1BDF81A2078
:10583800BDF8263011461846FFF786F8082346E0DB
:10584800079B9DF803201A70079B00229A75BDF8E4
:105858001A20079B9A82029B5A68079B1A61FFF7D6
:105868009BF80246079BDA60029B1A88079B1A81FD
:10587800029B5A88079B9A80079BBDF82620DA80EE
:105888009DF80330032B06D1079B04229A75039BCE
:105898001A68079B9A61079BBDF824205A8105ABBB
:1058A8001846FFF7B1F9039B002B0DD0039B00228C
:1058B8005A60079BDA68039B1A60039B00229A725E
:1058C800064B1A89039B1A81FFF73AFF00231846F3
:1058D8000BB05DF804FB00BF2028002080280020C2
:1058E80000B585B001900091019B002B02D0009B70
:1058F800002B01D1052329E00DF10A03194601986F
:10590800FFF7A4F80346002B1FD0019B5B680393A5
:10591800BDF80A301A4613469B0013449B0008330F
:105928000C4A1344043301211846FEF7CDFD009BB1
:10593800039A1A60019B5B6803F10C02009B5A6092
:10594800019B01229A72002300E00A23184605B041
:105958005DF804FB5028002000B585B00190019B3C
:10596800002B01D1052339E00DF10A0319460198EE
:10597800FFF76CF80346002B2DD0BDF80A30194606
:10598800184A0B469B000B449B0013440C331B68BE
:10599800002B1DD0019B9B7A002B19D0BDF80A3033
:1059A8001A46104913469B0013449B000B440C33C2
:1059B8001B68591E0B4813469B0013449B00034465
:1059C8000C331960019B00229A720023039304E0B0
:1059D8000623039301E00A230393039B184605B0AB
:1059E8005DF804FB5028002000B585B001900B46F7
:1059F800ADF80230134B1B78DBB283F00103DBB246
:105A0800002B01D0022319E0019B002B01D10523B3
:105A180014E00DF10A02BDF8023011461846FEF7EF
:105A28002BFF0390039B002B07D1BDF80A20019B95
:105A38001A80019BBDF802205A80039B184605B0C6
:105A48005DF804FB2028002000B585B001901F4BAD
:105A58001B78DBB283F00103DBB2002B01D00223F9
:105A68002FE0019B002B01D105232AE0019B1B8815
:105A7800022B01D9042324E0019B1B881A461346F4
:105A88009B0013449B00124A13440293019B5B88BA
:105A98000233029A5289934210DA019B5A88019B79
:105AA8001B8819461046FEF74FFF019B00221A80FB
:105AB800019B00225A800023039301E004230393EF
:105AC800039B184605B05DF804FB00BF20280020A2
:105AD8005028002000B583B00190009102230022D5
:105AE80000990198FFF748FE0346184603B05DF891
:105AF80004FB00B585B0039002910192019B002B35
:105B080001D1052306E00223019A02990398FFF7C1
:105B180033FE0346184605B05DF804FB00B583B0B4
:105B280001900091019B002B01D1052306E003237E
:105B3800002200990198FFF71FFE0346184603B09C
:105B48005DF804FB00B585B00346ADF80630184B88
:105B58001B78DBB283F00103DBB2002B01D00223F8
:105B680022E0BDF806304FF6FF72934201D10423BC
:105B78001AE002AB1846FFF731F80390039B002B9D
:105B880001D1082310E0039B05221A70039B012210
:105B98001A71039BBDF80620DA8002AB1846FFF79E
:105BA80033F8FFF7CDFD0023184605B05DF804FB78
:105BB8002028002000B585B0029201930346ADF875
:105BC8000E300B46ADF80C3003A90DF10E00019B09
:105BD800029AFEF795FF0346184605B05DF804FBE8
:105BE80000B585B0034602910192ADF80E300DF173
:105BF8000E01019B029A0020FEF782FF0346184619
:105C080005B05DF804FB00B585B00346029101922A
:105C1800ADF80E300DF10E00019B029A0021FEF73F
:105C28006FFF0346184605B05DF804FB82B001908B
:105C38000091019B002B02D0009B002B01D1052372
:105C480004E0019B1A68009B1A600023184602B002
:105C5800704786B001900091019B53E8011F8AB2FA
:105C6800D88902449889824228BF121A1889824228
:105C780002BFBFF32F8F002307E0C2EA010243E807
:105C880001200028E9D14FF001038DF80F3005906D
:105C980002910492029A009B1A609DF80F30DBB2C1
:105CA800184606B0704784B00190019951E8013F49
:105CB800C3EA034341E80132002AF7D10392029371
:105CC80000BF04B0704786B001900091019B53E873
:105CD800021F1FFAA1F2D888824202BFBFF32F8F9A
:105CE80000230DE0D88902449889824228BF121AFD
:105CF800C1EA024243E802200028E8D14FF001033C
:105D08008DF80F30059002910492029A009B1A6058
:105D18009DF80F30DBB2184606B0704784B001908A
:105D2800019951E8023FC3EA234341E80232002ABD
:105D3800F7D10392029300BF04B0704700B583B057
:105D480001900091009B19460198FFF782FF0346D6
:105D5800002B05D0019B1B68009A1288134400E0B1
:105D68000023184603B05DF804FB00B583B001902A
:105D78000091009B1A88009B5B889A4204D1019885
:105D8800FFF791FF012300E00023184603B05DF8F8
:105D980004FB00B583B001900091009B194601985F
:105DA800FFF791FF0346002B05D0019B1B68009A63
:105DB8005288134400E00023184603B05DF804FB42
:105DC80000B583B001900091009B1A88009B5B8806
:105DD8009A4204D10198FFF7A1FF012300E00023B4
:105DE800184603B05DF804FB00B583B001900B467C
:105DF8008DF80330019B002B03D10849AF2004F034
:105E08001BF8019BDA689DF803300199098A01FBA8
:105E180003F31344184603B05DF804FB6034030031
:105E280000B583B001900091019B002B03D1084974
:105E3800BC2004F001F8009B019AD2689B1A019AD1
:105E4800128AB3FBF2F3DBB2184603B05DF804FB29
:105E58006034030000B585B00190019B002B01D18F
:105E68000E2348E0019B1B68002B03D12449C62060
:105E780003F0E2FF019B5B68002B03D12049C72098
:105E880003F0DAFF019B9B68002B03D11C49C82053
:105E980003F0D2FF019BDB68002B03D11849C9200E
:105EA80003F0CAFF019B1B8A002B03D11449CA20A7
:105EB80003F0C2FF019B9A68019B5B68D31A8DF8B7
:105EC8000F30019B1B68019A52681A6007E0019B1A
:105ED8001A681368591C11609DF80F201A709DF8F4
:105EE8000F305A1E8DF80F20002BF0D1019B1B6834
:105EF80000221A710023184605B05DF804FB00BFA4
:105F08006034030000B585B00190019B002B03D1DC
:105F18001F49EC2003F090FF0023039300238DF822
:105F28000A300DF10A031846FEF75CFA019B1B685C
:105F38001A68019B5B689A421FD9019B1B681A6803
:105F4800013A1A601B681B7819460198FFF74CFF45
:105F58000390019B9A68019B1B681B68D31A8DF8F4
:105F68000B30019B1B681B799DF80B209A4204D9C2
:105F7800019B1B689DF80B201A719DF80A30184682
:105F8800FEF746FA039B184605B05DF804FB00BF10
:105F98006034030010B584B001900091019B002B80
:105FA80004D115494FF4887003F046FF009B002B7D
:105FB80004D1114940F2111003F03EFF009B0393F6
:105FC80000238DF80B300DF10B031846FEF70AFA83
:105FD800019B1B681C68621C1A6003990198FFF7F3
:105FE8001FFF034623709DF80B301846FEF710FA82
:105FF80000BF04B010BD00BF6034030000B583B01B
:106008000190019B002B03D10C49312003F014FFB0
:10601800019B9B68002B0CD0019B5B69019A10695E
:10602800019A1168019A92689847019B00229A6028
:1060380000E000BF03B05DF804FB00BFA434030018
:106048000EB400B584B00190019B002B03D1184910
:10605800422003F0F1FE019B5B69002B03D1144938
:10606800432003F0E9FE019B1B68002B03D1104974
:10607800442003F0E1FE019B5B68002B03D10C492F
:10608800452003F0D9FE059B002B0AD0002303937B
:1060980006AB039303AB1A460599019800F0B0F9D3
:1060A80000E000BF04B05DF804EB03B0704700BF28
:1060B800A434030000B583B001900B468DF803307B
:1060C800019B1A68019B9B68581C019988601344BE
:1060D8009DF803201A70019B9A68019B5B689A429D
:1060E80002D30198FFF78AFF00BF03B05DF804FBF5
:1060F80000B587B0039002910192009300230593A5
:10610800009B03F00103002B24D00BE0029B01331A
:106118000293059B013305939DF8133019460398A4
:10612800FFF7C8FF029B1B788DF813309DF81330DA
:10613800002BEBD106E0019B013B01932021039842
:10614800FFF7B8FF019A059B9A422ED9019B002BB5
:10615800F1D12AE0029B002B0BD002980CF064FFCF
:10616800059006E0019B013B019320210398FFF76E
:10617800A1FF019A059B9A420FD9019B002BF1D1EF
:106188000BE0029B01330293059B013305939DF8B5
:10619800133019460398FFF78DFF029B1B788DF883
:1061A80013309DF81330002BEBD100BF07B05DF81A
:1061B80004FB000000B589B003900291019200939E
:1061C800029B07930123069307E0079A019BB2FB02
:1061D800F3F30793069B01330693079A019B9A42B0
:1061E800F3D2009A069B9A4201D9009B06930B9B17
:1061F80003F00103002B22D10A9B002B1FD00B9B1D
:1062080003F00203002B06D0009B002B03D13023A0
:106218008DF8173002E020238DF8173008E00A9B2C
:10622800013B0A939DF8173019460398FFF742FF80
:106238000A9B002B03D0069A0A9B9A42EFD30123AC
:106248000793009B012B03D9009B013B009309E0B6
:10625800029A079BB2FBF3F30493049A019B9A42B8
:1062680000D205E0079B019A02FB03F30793E8E7D6
:10627800029A079BB2FBF3F30493049B079A02FB71
:1062880003F3029AD31A0293154A049B13441B780A
:1062980019460398FFF70EFF079A019BB2FBF3F329
:1062A8000793079B002BE3D10B9B03F00103002B03
:1062B80011D00A9B002B0ED006E00A9B013B0A93E3
:1062C80020210398FFF7F6FE0A9B002B03D0069ABD
:1062D8000A9B9A42F1D300BF09B05DF804FB00BFE6
:1062E8002435030000B589B0059004910392029308
:1062F800049B002BB8BF5B4206930123079307E07A
:10630800039B069A92FBF3F30693079B01330793CB
:10631800039B069A9A42F3DA029A079B9A4201D99A
:10632800029B07930A9B002B0AD0049B002B04DBDB
:106338000B9B03F00403002B02D00A9B013B0A933A
:106348000B9B03F00203002B02D0029B002B16D0FC
:106358000B9B03F00103002B11D10A9B002B0ED0DD
:1063680006E00A9B013B0A9320210598FFF7A2FE4D
:106378000A9B002B03D0079A0A9B9A42F1D3049BED
:10638800002B07DA049B5B4204932D210598FFF745
:1063980091FE08E00B9B03F00403002B03D02B2194
:1063A8000598FFF787FE0B9B03F00203002B19D01B
:1063B8000B9B03F00103002B14D1029B002B11D17E
:1063C8000A9B002B0ED006E00A9B013B0A93302162
:1063D8000598FFF76FFE0A9B002B03D0079A0A9BCC
:1063E8009A42F1D304990B9B01930A9B0093029B59
:1063F800039A0598FFF7DEFE00BF09B05DF804FBBD
:1064080000B58FB0059004910392059B002B04D131
:10641800C8494FF49F7003F00FFD059B5B69002B83
:1064280004D1C4494FF4A07003F006FD059B1B6816
:10643800002B04D1BF4940F2411003F0FDFC059B3D
:106448005B68002B04D1BB494FF4A17003F0F4FC46
:10645800049B002B00F0ED81049B1B788DF83730EE
:10646800049B013304939DF83730002B00F0D8814A
:106478009DF83730252B40F0C78100230A9301236C
:106488000C93049B1B788DF837309DF837302D2BF3
:1064980004D0302B0AD02B2B10D017E00A9B43F0E6
:1064A80001030A93049B0133049312E00A9B43F00F
:1064B80002030A93049B013304930AE00A9B43F006
:1064C80004030A93049B0133049302E000230C9312
:1064D80000BF0C9B002BD4D1002309939DF83730C3
:1064E8002A2B0CD1039B1B68191D039A11601B688A
:1064F800099A13440993049B013304931AE0049BFB
:106508001B788DF837309DF837302F2B12D99DF82E
:106518003730392B0ED8049B01330493099A13465C
:106528009B0013445B001A469DF837301344303BF8
:106538000993D3E700230B93049B1B788DF837301E
:106548009DF837302E2B1DD1049B01330493049BF7
:106558001B788DF837309DF837302F2B12D99DF8DE
:106568003730392B0ED8049B013304930B9A13460A
:106578009B0013445B001A469DF837301344303BA8
:106588000B93E4E7049B1B788DF837309DF8373080
:106598006C2B03D09DF83730682B07D1049B01334F
:1065A8000493049B1B788DF83730EFE79DF837305C
:1065B800253B532B00F2238101A252F823F000BFA0
:1065C800FD6702000768020007680200076802000A
:1065D80007680200076802000768020007680200EF
:1065E80007680200076802000768020007680200DF
:1065F80007680200076802000768020007680200CF
:1066080007680200076802000768020007680200BE
:1066180007680200076802000768020007680200AE
:10662800076802000768020007680200076802009E
:10663800076802000768020007680200076802008E
:10664800076802000768020007680200076802007E
:10665800076802000768020007680200076802006E
:10666800076802000768020007680200076802005E
:10667800076802000768020007680200076802004E
:1066880007680200076802000768020089670200BD
:10669800076802000768020007680200076802002E
:1066A800076802000768020007680200076802001E
:1066B80007680200076802001967020041670200C4
:1066C80007680200076802000768020007680200FE
:1066D80041670200076802000768020007680200B5
:1066E800076802000768020007680200C96702001D
:1066F8000768020007680200AD6702000768020029
:1067080065670200076802000768020089670200DF
:10671800039B1B68191D039A11601B680C930C9B43
:106728008DF823309DF8233019460598FFF7C2FCF1
:1067380066E000BFE0340300039B1B68191D039A41
:1067480011601B680C930A9B0193099B00930B9B98
:106758000A220C990598FFF7C5FD51E0039B1B68B9
:10676800191D039A11601B680C930C990A9B0193DD
:10677800099B00930B9B0A220598FFF71BFD3FE03E
:10678800039B1B68191D039A11601B680C930C99D5
:106798000A9B0193099B00930B9B10220598FFF716
:1067A80009FD2DE0039B1B68191D039A11601B68E6
:1067B80007930A9B099A07990598FFF799FC1FE028
:1067C800039B1B68191D039A11601B680C933021E9
:1067D8000598FFF76FFC78210598FFF76BFC0C997B
:1067E8000023019308230093082310220598FFF73C
:1067F800E1FC05E025210598FFF75CFC00E000BFFF
:10680800049B0133049305E09DF837301946059839
:10681800FFF750FC049B1B78002B7FF41DAE00E0B3
:1068280000BF059B1B7B002B04D00598FFF7E6FBF8
:1068380000E000BF0FB05DF804FB00BF10B586B0E4
:106848000590049103920293059B002B02D0039BB1
:10685800002B01D10E2340E0059B1B68002B01D1C2
:1068680008233AE0029B002B0AD0059B5B685A6814
:10687800029BB3FBF2F102FB01F29B1A002B01D041
:1068880009232AE0049800F0C7F8034683F00103BF
:10689800DBB2002B14D1039B184600F0BDF8034669
:1068A80083F00103DBB2002B0AD1029A0499059800
:1068B80000F098F8034683F00103DBB2002B01D007
:1068C80010230AE0059B1B68DC68089B0093029B69
:1068D800039A04990598A0470346184606B010BDC8
:1068E80010B584B00390029101920093039B002B92
:1068F80001D10E232EE0039B1B68002B01D1082336
:1069080028E0019B002B01D1092323E0039B5B684E
:106918001B685A1E029B1340002B10D1039B5B6817
:106928001B68019A02FB03F31A460299039800F0C8
:1069380059F8034683F00103DBB2002B01D0102382
:1069480008E0039B1B681C69009B019A0299039845
:10695800A0470346184604B010BD000000B585B036
:106968000190019B002B03D0019B1B68002B28D1B1
:106978000023039319E0039A13469B0013449B00DA
:106988001A46154B13440193019B1B68002B09D031
:10699800019B1B68DB69019898470346002B01D0CF
:1069A800012314E0039B013303930C4A0A4BD31AC7
:1069B8000B4AA2FB03231B09039A9A42DBD3002349
:1069C80005E0019B1B68DB69019898470346184658
:1069D80005B05DF804FB00BF0C2100202021002039
:1069E800CDCCCCCC84B0039002910192039BDB68A0
:1069F800029A9A4209D3029A019B13445A1E039B96
:106A08001B699A4201D8012300E0002303F0010327
:106A1800DBB2184604B0704782B00190019B03F0C6
:106A28000303002B0CBF01230023DBB2184602B07E
:106A3800704729DF704700BF184628DF704700BF3E
:106A4800184600B589B001900091019B1B689B68AE
:106A5800002B31D003AB00221A605A609A60DA60CA
:106A68001A61009B0493019B9B680793019B1B7908
:106A7800002B02D0012B0AD017E001238DF80C302F
:106A8800019B1B690593019B5B6906930DE002233B
:106A98008DF80C30019BDB684FF4805202FB03F346
:106AA8000593019B5B69069300BF019B1B689B686C
:106AB80003AA1046984700E000BF09B05DF804FB40
:106AC80000B587B00190019B5A69019B9B69D31A55
:106AD800B3F5805F28BF4FF4805305930422059BCC
:106AE800B3FBF2F3012B38BF01230593019B1A690D
:106AF800019B9B6913440493019BDB681A46019B25
:106B08009B6913440393059A03990498FFF791FF2F
:106B18000346184607B05DF804FB00B583B0019042
:106B2800019BDA68019B1B6913441846FFF785FF30
:106B38000346184603B05DF804FB000008B5034B94
:106B480003491846FFF73CF900BF08BDB0280020EC
:106B5800D828002008B5084B08491846FFF719F946
:106B68000246074B1A60064B1B68002B14BF012313
:106B78000023DBB2184608BDB0280020D828002022
:106B8800D428002000B583B02A4B1B7A002B0BD1E8
:106B9800FFF7E0FF034683F00103DBB2002B03D0CD
:106BA800244B00225A6041E0224B02221A72224BE7
:106BB8001B681B79002B02D0012B07D00DE01E4B60
:106BC8001B681846FFF77CFF019009E01A4B1B6809
:106BD8001846FFF7A2FF019002E00323019300BFCC
:106BE800019B002B03D0019B112B0CD00FE0114B04
:106BF8001B7C83F00103DBB2002B16D0002102209E
:106C080000F06EF811E00B4B01221A720EE00A4BED
:106C18001B6803211846FFF714FF064B00221A725F
:106C2800044B00225A6000BF00E000BF03B05DF8CB
:106C380004FB00BFC0280020D428002084B00190A5
:106C48001B4B0022DA60019B1B79002B02D0012B21
:106C580019D028E0019B5A69019B9B69D31AB3F5A7
:106C6800805F28BF4FF480530393019B9A69039B6D
:106C78001A44019B9A61019B9A69019B5B699A423C
:106C88000ED1012310E0019B1B695A1C019B1A615C
:106C9800019B1A69019B5B699A4203D1012303E0B6
:106CA80000BF00E000BF0023184604B0704700BFD3
:106CB800C028002082B00190084BDB680133074AE6
:106CC800D360064BDB68082B04D9044B0022DA603A
:106CD800012300E00023184602B07047C0280020B6
:106CE80000B585B001900091254B1B7A012B33D05C
:106CF800022B41D100238DF80F30019B022B03D0CA
:106D0800019B032B09D011E01E4B1B681846FFF7A7
:106D180095FF03468DF80F3008E01A4B1B6818469C
:106D2800FFF7C8FF03468DF80F3000BF9DF80F30FE
:106D3800002B13D0124B00221A72124B1A68019BB7
:106D4800022B01D1002300E00D2319461046FFF75E
:106D580078FEFFF7F3FE01E000BF00E000BF084B3C
:106D68005B7C83F00103DBB2002B02D0FFF70AFF44
:106D780003E00BF0DDFE00E000BF05B05DF804FBAA
:106D8800C0280020D428002082B0034600918DF846
:106D98000730064B01225A74044B1B7A002B0CBF98
:106DA80001230023DBB2184602B07047C028002038
:106DB80000B583B0034600918DF807309DF8073081
:106DC800012B03D09DF80730032B0DD1084B00226F
:106DD8005A749DF80730012B0CBF01230023DAB247
:106DE800034B1A74FFF7CEFE00BF03B05DF804FB37
:106DF800C028002010B487B001900091019B009A30
:106E080053E8004F04EB020043E8000191F0000F43
:106E1800F6D1059404900391049B184607B05DF8D9
:106E2800044B704710B487B001900091019B009A01
:106E380053E8004FA4EB020043E8000191F0000F73
:106E4800F6D1059404900391049B184607B05DF8A9
:106E5800044B704700B583B001900198FEF7FAFF24
:106E68000346184603B05DF804FB00B58BB00190EB
:106E78000091019B1B8A043B0793009A079B1344CC
:106E8800DA1C079BB2FBF3F38DF81B300198FFF770
:106E980039F80590059B002B01D1002338E0059BAC
:106EA80000221A71059B01225A71079B9AB2059B11
:106EB800DA80059B09939DF81B30013B0493099BDD
:106EC800019A1A60002308931DE00198FFF71AF849
:106ED8000390039B002B0ED0059B5B790133DAB23C
:106EE800059B5A71099B039A1A60039B019A1A60C1
:106EF800039B099304E0059800F00EF8002307E0CF
:106F0800089B01330893089A049B9A42DDD3059B9A
:106F180018460BB05DF804FB00B58BB00190019BDF
:106F28000793079B5B798DF81B30019B08939DF8AD
:106F38001B30013B05930023099305E0089B1B6860
:106F48000893099B01330993099A059B9A42F5D343
:106F5800089B1B680493019B0893002309930BE08B
:106F6800089B1B68039308990498FFF713F8039B81
:106F78000893099B013309939DF81B30099A9A429B
:106F8800EED300BF0BB05DF804FB00B585B00190EF
:106F9800019B0393039B043301211846FFF72AFF43
:106FA80000BF05B05DF804FB00B587B00190019BF8
:106FB8000593059B043301211846FFF733FF034669
:106FC800039303AB0493049B1B78002B02D1019815
:106FD800FFF7A2FF00BF07B05DF804FB00B58DB056
:106FE8000390029101920093039B0693069BDB8812
:106FF8000593039B0B93009B1A1D059BB2FBF3F3B0
:107008000A93009B0433059AB3FBF2F2059901FB3E
:1070180002F29B1A0993009A019B1A44059B134498
:10702800DA1C059BB2FBF3F38DF81330069B5B79F2
:107038009DF813209A420AD92749BA2002F0FCFE8B
:1070480005E00B9B1B680B930A9B013B0A930A9B69
:10705800002BF6D100230893059A099BD31A0793AE
:10706800079A019B934228BF134607932DE09DF88A
:107078003830002B0BD0029A089BD0180B9A099B2A
:1070880013440433079A19460BF050FF0AE00B9A91
:10709800099B1344181D029A089B1344079A194622
:1070A8000BF044FF002309930B9B1B680B93019A79
:1070B800079BD31A0193089A079B13440893059AD0
:1070C800019B934228BF13460793019B002BCED107
:1070D80000BF0DB05DF804FB3435030000B587B080
:1070E800059004910392029300230093029B039A54
:1070F80004990598FFF772FF00BF07B05DF804FB1D
:1071080000B587B005900491039202930123009380
:10711800029B039A04990598FFF760FF00BF07B028
:107128005DF804FB00B583B001900091019B002B32
:1071380003D11049502002F07FFE009B002B03D1A1
:107148000C49512002F078FE019B009A1A60019BBD
:107158001B681A68019B5A60019B5A68019B1B684F
:107168005B689A4202D1019B00225A6000BF03B0BB
:107178005DF804FB6836030000B583B00190019BFD
:10718800002B03D11449632002F056FE019B1B68B3
:10719800002B03D11049642002F04EFE019B5B686E
:1071A800002B14D0019B5B681A46019B1B689B68E7
:1071B80013441A46019B5A60019B5A68019B1B683D
:1071C8005B689A4204D1019B00225A6000E000BF2C
:1071D80003B05DF804FB00BF6836030082B001907D
:1071E8000B46ADF80230019B1A68BDF80230012148
:1071F80001FA03F31A43019B1A6000BF02B07047FB
:1072080082B001900B46ADF80230019B1A68BDF8B8
:107218000230012101FA03F3DB431A40019B1A6093
:1072280000BF02B0704782B001900B46ADF8023043
:10723800BDF80230012202FA03F31A46019B1340FB
:10724800002B14BF01230023DBB2184602B070479D
:1072580000B585B001900023ADF80E3010E0BDF800
:107268000E3019460198FFF7DEFF0346002B02D0C7
:10727800BDF80E300AE0BDF80E300133ADF80E301F
:10728800BDF80E301F2BEAD94FF6FF73184605B02C
:107298005DF804FB00B587B00590049111461A46C5
:1072A8000B46ADF80E3013468DF80D30BDF80E20A4
:1072B8009DF80D300093134601220499059800F0BB
:1072C80004F800BF07B05DF804FB00B587B0039071
:1072D80002910192ADF80230039B002B3BD0029B38
:1072E800002B38D0019B002B35D0002305932FE0CD
:1072F800059B5B00039A13441B88BDF802209A4241
:1073080023D1002304931BE09DF82030002B0AD0E2
:10731800049B9B00029A1344059A92B211461846A0
:10732800FFF75CFF09E0049B9B00029A1344059A4F
:1073380092B211461846FFF763FF049B013304938A
:10734800049A019B9A42DFD305E0059B013305931C
:10735800059B1F2BCCD907B05DF804FB00B587B09F
:10736800039002911346ADF80630039B002B19D009
:107378000023059313E0059B5B00039A13441B88C5
:10738800BDF806209A4207D1059B9BB21946029880
:10739800FFF749FF034606E0059B01330593059B6C
:1073A8001F2BE8D90023184607B05DF804FB00B589
:1073B80097B003900291019200230493029B002B43
:1073C8001ED00023159318E0159B9BB2194601980F
:1073D800FFF729FF0346002B0CD0159B5B00029A90
:1073E8001A44049B591C049112885B0016A90B448B
:1073F80023F8442C159B01331593159B1F2BE3D9B8
:10740800039B184604AB442219460BF08FFD0398E2
:1074180017B05DF804FB000000B583B00190019B34
:107428001B682F2B04D90B494FF4E87002F004FDB8
:10743800019B1B681F2B02D84FF0A04306E0019B5D
:107448001B6803F01F02019B1A60034B184603B028
:107458005DF804FBC83603000003005000B585B092
:107468000190084611461A4603468DF803300B462C
:107478008DF8023013468DF8013001AB1846FFF73E
:10748800CBFF03909DF803209DF802305B001A4360
:107498009DF801309B001A439DF818301B0242EA00
:1074A80003019DF81C301B04019A1943039B02F544
:1074B800E07243F8221000BF05B05DF804FB00B588
:1074C80085B0039000230193002300930023012239
:1074D80001210398FFF7C2FF00BF05B05DF804FB68
:1074E80000B585B0019001AB1846FFF795FF0390F2
:1074F800019B012202FA03F31946039800F086F86B
:1075080000BF05B05DF804FB00B585B0019001AB84
:107518001846FFF781FF0390019B012202FA03F34B
:107528001946039800F07CF800BF05B05DF804FB2D
:1075380000B585B0019001AB1846FFF76DFF0390C9
:10754800039BD3F804350293029BDA43019B012184
:1075580001FA03F31A40039BC3F80825019B012293
:107568009A40029B1A40039BC3F80C2500BF05B044
:107578005DF804FB00B583B001900091009B002BDF
:1075880003D10198FFF7C0FF02E00198FFF7A8FFB9
:1075980000BF03B05DF804FB00B585B0019001ABF6
:1075A8001846FFF739FF0390039800F01FF80246CA
:1075B800019B22FA03F303F00103184605B05DF8B6
:1075C80004FB00B585B0019001AB1846FFF724FF16
:1075D8000390039800F012F80246019B22FA03F385
:1075E80003F00103184605B05DF804FB82B0019072
:1075F800019BD3F81035184602B0704782B001904D
:10760800019BD3F80435184602B0704782B0019048
:107618000091019B009AC3F8082500BF02B070478B
:1076280082B001900091019B009AC3F80C2500BF1D
:1076380002B0704700B585B00190019B032B03D9B8
:107648001149372002F0F8FB104A019B13441B78BC
:107658001846FFF7B6FF0346002B14BF012300238B
:107668008DF80F309DF80F30002B14BF0123002335
:10767800DBB283F00103DBB203F00103DBB218468F
:1076880005B05DF804FB00BF00370300383703007E
:1076980000B583B00190019B032B03D907493E2015
:1076A80002F0CAFB064A019B13441B7800211846C6
:1076B800FFF760FF00BF03B05DF804FB003703006D
:1076C8003837030000B583B00190019B032B03D921
:1076D8000749442002F0B0FB064A019B13441B787B
:1076E80001211846FFF746FF00BF03B05DF804FB11
:1076F800003703003837030000B583B00023019337
:1077080005E00198FFF7DEFF019B01330193019B20
:10771800032BF6D900BF03B05DF804FB00B583B0B6
:107728000023019305E00198FFF7B2FF019B0133A5
:107738000193019B032BF6D900BF03B05DF804FB4E
:1077480000B583B00190019B032B03D907495C2046
:1077580002F072FB064A019B13441B781846FFF798
:10776800E7FE00BF03B05DF804FB00BF003703006D
:107778003837030000B583B00023019309E0094AB4
:10778800019B13441B781846FFF799FE019B0133B0
:107798000193019B032BF2D9FFF7AEFF00BF03B0A3
:1077A8005DF804FB3837030000B585B00190019BF4
:1077B800002B03D00A49832002F03EFB0B23184616
:1077C800FFF7EAFE0346002B14BF012300238DF8C0
:1077D8000F309DF80F30184605B05DF804FB00BF68
:1077E8000037030084B001904FF0FF330293002369
:1077F80003930AE00B231A46019B934202D1039B91
:10780800029305E0039B01330393039B002BF1D004
:10781800029B184604B0704700B583B00190019BE5
:10782800002B03D00449A22002F006FB0B231846C4
:1078380003B05DF804FB00BF0037030082B00346C5
:107848008DF807309DF8073003F01F0206499DF9AF
:1078580007305B09012000FA02F2203341F82320A7
:1078680000BF02B0704700BF00E100E082B00190A5
:107878004FF08042019BC2F8083300BF02B0704746
:1078880082B003468DF807309DF8073003F1804336
:1078980001221A6000BF02B0704784B00346ADF8F9
:1078A8000630BDF8063003F1804300221A60BDF8A7
:1078B800063003F180431B680393039B00BF04B0A9
:1078C800704782B00346ADF80630BDF8063003F1C4
:1078D80080431B68002B14BF01230023DBB218462A
:1078E80002B0704782B003468DF807309DF8073024
:1078F8004FF0804203F00303C2F8183500BF02B00E
:1079080070474FF08043D3F818341B0C03F0010381
:10791800002B14BF01230023DBB218467047000078
:1079280082B003468DF807300A4A9DF907305B0993
:1079380052F823209DF8073003F01F03012101FAB4
:1079480003F31340002B14BF01230023DBB21846B6
:1079580002B0704700E100E008B50020FFF7E0FF43
:10796800034683F00103DBB2002B03D0072100207C
:1079780000F096F900BF08BD08B50BF0F5F803460E
:1079880083F00103DBB2002B03D10949842002F004
:1079980053FA0C20FFF774FF00BFFFF7B2FF03464E
:1079A800002BFAD1034B00229A7000BF08BD00BF1C
:1079B80044370300DC28002000B583B0002301937E
:1079C800134B1B78002B02D0852301931BE0104B2F
:1079D80000229A600E4B00225A600D4B00221A6159
:1079E8000B4B0022DA60FFF7B7FF0BF0BDF8034638
:1079F80083F00103DBB2002B02D00120FFF772FFF6
:107A0800034B01221A70019B184603B05DF804FB72
:107A1800DC28002084B00190019B1B680393039B22
:107A2800002B03D0039B1A68019B1A60039B18461E
:107A380004B0704700B583B0164B1B78002B04D1F7
:107A480015494FF48E7002F0F7F9124BDB68002BE2
:107A580004D1114940F21D1002F0EEF900238DF80F
:107A680007300DF107031846FCF7BCFC094BDB682F
:107A7800013B084AD360074BDB68002B01D1FFF7B5
:107A88007BFF9DF807301846FCF7C2FC00BF03B027
:107A98005DF804FBDC2800204437030000B585B0FE
:107AA80003468DF807309DF80730002B02D10C4BA8
:107AB800039301E00B4B03930398FFF7ABFF02908E
:107AC800029B002B06D0029B5B689DF8072010469E
